:1000000045C0000053C0000051C000004FC00000B8
:100010004DC000004BC0000049C0000047C00000B8
:1000200045C0000043C0000041C000003FC00000C8
:100030003DC000003BC0000039C0000037C00000D8
:1000400035C0000033C0000031C000002FC00000E8
:100050002DC000002BC0000029C0000027C00000F8
:1000600025C0000023C0000021C000001FC0000008
:100070001DC000001BC0000019C0000017C0000018
:1000800015C0000013C0000011C0000011241FBEE5
:10009000CFEFD0E4DEBFCDBF22E0A0E0B1E001C0F1
:1000A0001D92AA3FB207E1F702D075C0A9CF25D0B3
:1000B00081E06AD058D0FFCF2998662311F02B9A9F
:1000C00015C02B9813C0AC01022E02C05595479560
:1000D0000A94E2F740FF02C02C9A01C02C982D9A96
:1000E0002D982150310978F7299A089527E030E0BA
:1000F00090E0E9CF60E0E0CF0895CF93DF93219ABD
:10010000229A239A249A259A2A9A299A83EC99E08A
:100110000197F1F700C000002A988BE594E401975D
:10012000F1F700C000002A9A299881E2E3DF83E119
:10013000E1DF86E0DFDF82ECDDDF80E2DBDF89E02C
:10014000D9DF80E8D7DF80E4D5DFC8EFD1E061E018
:1001500080E0B2DF2197D9F788E0CCDF8CE0CADFFE
:10016000DF91CF91089580E8C5DF80E4C3DF10926E
:10017000F8021092F902E0E0F1E088EF92E01192CB
:10018000E817F907E1F70895811102C084E201C080
:0A01900080E2B0CF0895F894FFCF8D
:00000001FF
