:1000000045C0000058C0000056C0000054C00000A9
:1000100052C0000050C000004EC000004CC00000A4
:100020004AC0000048C0000046C0000044C00000B4
:1000300042C0000040C000003EC000003CC00000C4
:100040003AC0000038C0000036C0000034C00000D4
:1000500032C0000030C000002EC000002CC00000E4
:100060002AC0000028C0000026C0000024C00000F4
:1000700022C0000020C000001EC000001CC0000004
:100080001AC0000018C0000016C0000011241FBED6
:10009000CFEFD0E4DEBFCDBF11E0A0E0B1E0EEE4F1
:1000A000F1E000E00BBF02C007900D92A030B10755
:1000B000D9F739D04AC0A4CF181619065CF00895B4
:1000C000000021503109E1F74F5F5F4F841795071A
:1000D00019F4089540E050E027E033E0F1CF5E9856
:1000E00088B95F9A00005F9882E090E0E5CF0895BC
:1000F00081E0F5CF089584E690E0DEDF88E3EFDF6E
:1001000086E0EDDF8FE0EBDF81E0E9DF8AE090E081
:10011000D3CF08955E9A88B95F9A00005F9881E016
:1001200090E0CACF089511B88FEF82B984B915B89D
:1001300087B918B88AB91BB8DEDFDADFC0E08C2FC8
:0E014000E9DFCF5FC830D9F7F9CFF894FFCFD1
:00000001FF
