S01600004E6F6B69615465737462656E63682E737265637C
S113000035C1000050C100004EC100004CC10000C9
S11300104AC1000048C1000046C1000044C10000BC
S113002042C1000040C100003EC100003CC10000CC
S11300303AC1000038C1000036C1000034C10000DC
S113004032C1000030C100002EC100002CC10000EC
S11300502AC1000028C1000026C1000024C10000FC
S113006022C1000020C100001EC100001CC100000C
S11300701AC1000018C1000016C1000014C100001C
S113008012C1000010C100000EC1000000000000F9
S11300900000005F00000007000700147F147F14B5
S11300A0242A7F2A122313086462364955225000F9
S11300B005030000001C2241000041221C0014081A
S11300C03E081408083E08080050300000080808DC
S11300D00808006060000020100804023E514945F1
S11300E03E00427F400042615149462141454B3127
S11300F01814127F1027454545393C4A49493001B7
S1130100710905033649494936064949291E00360D
S1130110360000005636000008142241001414145E
S1130120141400412214080201510906324979418C
S11301303E7E1111117E7F494949363E414141229B
S11301407F4141221C7F494949417F090909013EF8
S11301504149497A7F0808087F00417F41002040D7
S1130160413F017F081422417F404040407F020C00
S1130170027F7F0408107F3E4141413E7F09090907
S1130180063E4151215E7F091929464649494931B4
S113019001017F01013F4040403F1F2040201F3F9D
S11301A04038403F6314081463070870080761511E
S11301B0494543007F4141000204081020004141A9
S11301C07F00040201020440404040400001020458
S11301D00020545454787F484444383844444420DC
S11301E0384444487F3854545418087E0901020C9A
S11301F05252523E7F0804047800447D400020405F
S1130200443D007F1028440000417F40007C0418D6
S113021004787C0804047838444444387C14141466
S113022008081414187C7C08040408485454542006
S1130230043F4440203C4040207C1C2040201C3C87
S11302404030403C44281028440C5050503C4464F6
S1130250544C44000836410000007F000000413641
S113026008001008081008000000000011241FBE38
S1130270CFEFD0E4DEBFCDBF11E0A0E0B1E0EAE40F
S1130280F5E000E00BBF02C007900D92AE33B1075A
S1130290D9F723E0AEE3B1E001C01D92A833B20761
S11302A0E1F702D050C1ACCE8FEF84B915B844D079
S11302B078D060E080E024D161E080E091E011D169
S11302C06AE080E01DD161E08AE091E00AD164E156
S11302D080E016D161E086E191E003D16EE180E037
S11302E00FD161E084E291E0FCD068E280E008D1C3
S11302F061E082E391E0F5D008D1FFCF2C9866232A
S113030011F02A9A01C02A9827E030E090E0AC016D
S1130310022E02C0559547950A94E2F740FF02C0A9
S1130320299A01C02998289A28982150310978F7E8
S11303302C9A089560E0E2CFCF93DF93249A239A16
S1130340229A219A209A2B9A2C9A83EC99E001976D
S1130350F1F700C000002B988BE594E40197F1F7C6
S113036000C000002B9A2C9881E2E4DF83E1E2DFF5
S113037086E0E0DF82ECDEDF80E2DCDF89E0DADFEA
S113038080E8D8DF80E4D6DFC8EFD1E061E080E028
S1130390B5DF2197D9F788E0CDDF8CE0DF91CF91ED
S11303A0C9CF80E8C7DF80E4C5DF1092360310921E
S11303B03703EEE3F1E0119283E0E633F807D9F76F
S11303C00895962F969596959695E82FF0E084E5F6
S11303D0989FE00DF11D1124E25CFE4F677081E0EF
S11303E090E001C0880F6A95EAF7442319F09081E0
S11303F0892B03C080959081892380830895BF92BF
S1130400CF92DF92EF92FF920F931F93CF93DF93DC
S1130410D62E95E0699FE001112497E0699F800141
S11304201124B12C90E0809725E0289F7001299F2A
S1130430F00C11248B2D90E08C179D073CF5C12CFA
S11304408C2D90E080179107FCF48B2D6D2D6FD0CF
S1130450F701E80FF11DE457FF4FE491F0E08C2D14
S113046066D002C0F595E7958A95E2F76091370367
S1130470809136036C0DE0FF02C041E001C040E012
S11304808B0D9FDFC394DCCFB394D4CF809136031C
S113049091E0980F8D2D880F880F8D0D890F84356D
S11304A018F4809336030BC01092360380913703FF
S11304B08F5F97E0D99E800D11248093370380913C
S11304C03703803320F01092360310923703DF9104
S11304D0CF911F910F91FF90EF90DF90CF90BF903D
S11304E008951F93CF93DF93162FEC0189918823EE
S11304F019F0612F84DFFACFDF91CF911F91089516
S113050080933603609337030895CF93DF9380E895
S113051011DF80E40FDFCEE3D1E061E08991EEDE0C
S113052083E0C633D807C9F7DF91CF910895991BAB
S113053079E004C0991F961708F0961B881F7A95D6
S10D0540C9F780950895F894FFCFE1
S113054A4D41494E204D454E5500413A204E65775E
S113055A2067616D6500423A20446966666963757D
S113056A6C747900433A204869676873636F7265EB
S111057A7300443A2053657474696E6773000D
S9030000FC
