:1000000045C0000060C000005EC000005CC0000091
:100010005AC0000058C0000056C0000054C0000084
:1000200052C0000050C000004EC000004CC0000094
:100030004AC0000048C0000046C0000044C00000A4
:1000400042C0000040C000003EC000003CC00000B4
:100050003AC0000038C0000036C0000034C00000C4
:1000600032C0000030C000002EC000002CC00000D4
:100070002AC0000028C0000026C0000024C00000E4
:1000800022C0000020C000001EC0000011241FBEBE
:10009000CFEFD0E4DEBFCDBF11E0A0E0B1E0E0EBF8
:1000A000F1E000E00BBF02C007900D92A033B10752
:1000B000D9F721E0A0E3B1E001C01D92A035B2075D
:1000C000E1F762D073C09CCF20E030E028173907F9
:1000D0004CF447E053E0000041505109E1F72F5F35
:1000E0003F4FF4CF0895169888B9179A00001798D3
:1000F00082E090E0E9CF81E0F6CF813110F48158C1
:1001000001C08155F0CF169A88B9179A0000179848
:1001100081E090E0D9CFEF92FF921F93CF93DF93CE
:1001200084E690E0D1DF88E3DEDF86E0DCDF8EE08E
:10013000DADF81E0D8DF8AE090E0C6DF80E0E82EF9
:1001400081E0F82E10E4C0E0D0E08C2F810FCBDFEF
:10015000D701ED91FC91EC0FFD1F8081D4DF81E090
:1001600090E0B2DF2196C830D10579F7185FB2E090
:10017000EB0EF11C103839F78AE090E0DF91CF9157
:100180001F91FF90EF90A0CF8FEF81B912B884B983
:1001900015B887B918B8BFDFAEDF81E0AEDF80E009
:1001A000B2DF81E0B0DF82E0AEDFFFCFF894FFCFB7
:1001B00028012001180110014801400138013001D7
:1001C000001F0E0E04040E1F000C0E0F0F0E0C006D
:1001D00003040404040414081F0E04040E1F0E0478
:00000001FF
