S01600004E6F6B69615465737462656E63682E737265637C
S113000035C1000050C100004EC100004CC10000C9
S11300104AC1000048C1000046C1000044C10000BC
S113002042C1000040C100003EC100003CC10000CC
S11300303AC10000C8C1000036C1000034C100004C
S113004032C1000030C100002EC100002CC10000EC
S11300502AC1000028C1000026C1000024C10000FC
S113006022C1000020C100001EC100001CC100000C
S11300701AC1000018C1000016C1000014C100001C
S113008012C1000010C100000EC1000000000000F9
S11300900000005F00000007000700147F147F14B5
S11300A0242A7F2A122313086462364955225000F9
S11300B005030000001C2241000041221C0014081A
S11300C03E081408083E08080050300000080808DC
S11300D00808006060000020100804023E514945F1
S11300E03E00427F400042615149462141454B3127
S11300F01814127F1027454545393C4A49493001B7
S1130100710905033649494936064949291E00360D
S1130110360000005636000008142241001414145E
S1130120141400412214080201510906324979418C
S11301303E7E1111117E7F494949363E414141229B
S11301407F4141221C7F494949417F090909013EF8
S11301504149497A7F0808087F00417F41002040D7
S1130160413F017F081422417F404040407F020C00
S1130170027F7F0408107F3E4141413E7F09090907
S1130180063E4151215E7F091929464649494931B4
S113019001017F01013F4040403F1F2040201F3F9D
S11301A04038403F6314081463070870080761511E
S11301B0494543007F4141000204081020004141A9
S11301C07F00040201020440404040400001020458
S11301D00020545454787F484444383844444420DC
S11301E0384444487F3854545418087E0901020C9A
S11301F05252523E7F0804047800447D400020405F
S1130200443D007F1028440000417F40007C0418D6
S113021004787C0804047838444444387C14141466
S113022008081414187C7C08040408485454542006
S1130230043F4440203C4040207C1C2040201C3C87
S11302404030403C44281028440C5050503C4464F6
S1130250544C44000836410000007F000000413641
S113026008001008081008000000000011241FBE38
S1130270CFEFD0E4DEBFCDBF11E0A0E0B1E0E4EE0B
S1130280F7E000E00BBF02C007900D92A433B10762
S1130290D9F723E0A4E3B1E001C01D92A335B2076E
S11302A0E1F73ED19DC2ACCE20E030E028173907FB
S11302B04CF447E053E0000041505109E1F72F5F4F
S11302C03F4FF4CF0895169888B9179A00001798ED
S11302D082E090E0E9CF81E0F6CF169A88B9179AC8
S11302E00000179881E090E0DFCFEF92FF921F9318
S11302F0CF93DF9384E690E0D7DF88E3E4DF86E002
S1130300E2DF8EE0E0DF81E0DEDF8AE090E0CCDF58
S113031080E0E82E81E0F82E10E4C0E0D0E08C2FDD
S1130320810FD1DFD701ED91FC91EC0FFD1F80818E
S1130330D4DF81E090E0B8DF2196C830D10579F7A9
S1130340185FB2E0EB0EF11C103839F78AE090E048
S1130350DF91CF911F91FF90EF90A6CF6093300172
S1130360709331018093320190933301609354016F
S113037070935501809356019093570108958BE033
S1130380809381008DE790E09093890080938800AA
S113039082E080936F001092850010928400809117
S11303A0300190913101A0913201B09133018093D9
S11303B0540190935501A0935601B09357018FB700
S11303C080688FBF08951F920F920FB60F92112469
S11303D08F939F93AF93BF93809154019091550154
S11303E0A0915601B09157010197A109B1098093D9
S11303F0540190935501A0935601B0935701892B52
S11304008A2B8B2B99F481E08093580180913001E1
S113041090913101A0913201B09133018093540144
S113042090935501A0935601B0935701BF91AF919A
S11304309F918F910F900FBE0F901F9018958A3047
S1130440910560F08436910558F0883E23E09207C8
S113045048F08031974240F085E0089581E00895A6
S113046082E0089583E0089584E008950F931F9334
S1130470CF93DF93EC018B01E2DFE82FF0E0E00F94
S1130480F11F2AE030E0E017F10741F03197CE0187
S1130490B90192D1805D8083EB01F5CFDF91CF91DB
S11304A01F910F910895AF92BF92CF92DF92EF9276
S11304B0FF920F931F93CF93DF93CDB7DEB78C01D9
S11304C0ADB6BEB6BCDFD82E8DB79EB78D199109D7
S11304D00FB6F8949EBF0FBE8DBFEDB7FEB7319631
S11304E07F01BF01C801C2DFCE2C8701802F8C1988
S11304F08D1530F461E0F80181918F01C8D0F6CFF9
S11305000FB6F894BEBE0FBEADBEDF91CF911F9162
S11305100F91FF90EF90DF90CF90BF90AF90089530
S11305208FEF81B912B89FE794B990E895B987B96C
S113053018B84AD0DADE7DD0CEDE6AE070E080E022
S113054090E00CDF1CDFC0E0D0E0219672D06AE0BE
S113055080E00FD1CE01A7DF11D18091580188230B
S1130560E1F310925801C83582E0D80771F761D0E1
S11305706AE080E0FED088E592E095DFFFD08091CC
S113058058018823E1F310925801F9CF2C9866237F
S113059011F02A9A01C02A9827E030E090E0AC01DB
S11305A0022E02C0559547950A94E2F740FF02C017
S11305B0299A01C02998289A28982150310978F756
S11305C02C9A089560E0E2CFCF93DF93249A239A84
S11305D0229A219A209A2B9A2C9A83EC99E00197DB
S11305E0F1F700C000002B988BE594E40197F1F734
S11305F000C000002B9A2C9881E2E4DF83E1E2DF63
S113060086E0E0DF82ECDEDF80E2DCDF89E0DADF57
S113061080E8D8DF80E4D6DFC8EFD1E061E080E095
S1130620B5DF2197D9F788E0CDDF8CE0DF91CF915A
S1130630C9CF80E8C7DF80E4C5DF10925103109270
S11306405203E9E5F1E0119283E0E135F807D9F7C7
S11306500895962F969596959695E82FF0E084E563
S1130660989FE00DF11D1124E75AFE4F677081E059
S113067090E001C0880F6A95EAF7442319F090814D
S1130680892B03C080959081892380830895BF922C
S1130690CF92DF92EF92FF920F931F93CF93DF934A
S11306A0D62E95E0699FE001112497E0699F8001AF
S11306B01124B12C90E0809725E0289F7001299F98
S11306C0F00C11248B2D90E08C179D073CF5C12C68
S11306D08C2D90E080179107FCF48B2D6D2D60D04C
S11306E0F701E80FF11DE457FF4FE491F0E08C2D82
S11306F057D002C0F595E7958A95E2F760915203C9
S1130700809151036C0DE0FF02C041E001C040E064
S11307108B0D9FDFC394DCCFB394D4CF809151036E
S113072091E0980F8D2D880F880F8D0D890F8435DA
S113073018F4809351030BC010925103809152031B
S11307408F5F97E0D99E800D11248093520380918E
S11307505203803320F01092510310925203DF9120
S1130760CF911F910F91FF90EF90DF90CF90BF90AA
S1130770089580935103609352030895CF93DF93B8
S113078080E820DF80E41EDFC9E5D1E061E08991E3
S1130790FDDE83E0C135D807C9F7DF91CF91089515
S11307A0991B79E004C0991F961708F0961B881FBF
S11307B07A95C9F780950895AA1BBB1B51E107C020
S11307C0AA1FBB1FA617B70710F0A61BB70B881FDD
S11307D0991F5A95A9F780959095BC01CD0108956C
S10707E0F894FFCFB7
S11307E428012001180110014C0144013C01340189
S11307F4001F0E0E04040E1F000C0E0F0F0E0C002F
S113080403040404040414081F0E04040E1F0E0439
S107081401000000DB
S9030000FC
