S014000046696E616C50726F6A6563742E737265634F
S113000045C0000060C000005EC000005CC000008D
S11300105AC0000058C0000056C0000054C0000080
S113002052C0000050C000004EC000004CC0000090
S11300304AC0000048C0000046C0000044C00000A0
S113004042C0000040C000003EC000003CC00000B0
S11300503AC0000038C0000036C0000034C00000C0
S113006032C0000030C000002EC000002CC00000D0
S11300702AC0000028C0000026C0000024C00000E0
S113008022C0000020C000001EC0000011241FBEBA
S1130090CFEFD0E4DEBFCDBF11E0A0E0B1E0E0ECF3
S11300A0F1E000E00BBF02C007900D92A032B1074F
S11300B0D9F721E0A0E2B1E001C01D92A035B2075A
S11300C0E1F768D07BC09CCFF999FECF92BD81BD8A
S11300D060BDFA9AF99A0895F999FECF92BD81BD4F
S11300E0F89A81E090E002D080B5089520E030E0F5
S11300F0281739074CF447E053E0000041505109F8
S1130100E1F72F5F3F4FF4CF08955E9888B95F9A67
S113011000005F9882E090E0E9CF81E0F6CF5E9A3C
S113012088B95F9A00005F9881E090E0DFCFCF93B9
S1130130DF9384E690E0DADF88E3E7DF86E0E5DF5B
S11301408FE0E3DF81E0E1DF8AE090E0CFDF80E46D
S1130150DCDFC0E0D0E0E0910001F0910101EC0FA0
S1130160FD1F8081DCDF2196C830D105A1F7C0E0F6
S1130170D0E0E0910201F0910301EC0FFD1F8081BA
S1130180CEDF2196C830D105A1F78AE090E0DF9157
S1130190CF91ACCF11B88FEF82B984B915B887B9B4
S11301A018B88AB91BB8C3DFB8DF61E680E090E015
S11301B08BDF80E090E090DFB2DFFFCFF894FFCFD9
S11301C018011001480140013801300128012001C3
S11301D003040404040414081F0E04040E1F0E0474
S9030000FC
