:1000000050C100006DC100006BC1000069C100005B
:1000100067C1000065C1000063C1000061C100004C
:100020005FC100005DC100005BC1000059C100005C
:1000300057C10000FAC4000053C1000051C10000C4
:100040004FC100004DC100004BC1000049C100007C
:1000500047C1000045C1000043C1000041C100008C
:100060003FC100003DC100003BC1000039C100009C
:1000700037C1000035C1000033C1000031C10000AC
:100080002FC100002DC100002BC10000F00809099C
:100090004909650980099C09C609CB096D0A920ABC
:1000A000DA0A1D0B4F0B920BE10B2B0CCA0C510DF6
:1000B000890DE80D1C0E330E630E810F810F900F1A
:1000C000A00F000000000000005F00000007000714
:1000D00000147F147F14242A7F2A122313086462D9
:1000E00036495522500005030000001C2241000043
:1000F00041221C0014083E081408083E080800505D
:10010000300000080808080800606000002010089F
:1001100004023E5149453E00427F40004261514940
:10012000462141454B311814127F1027454545396A
:100130003C4A4949300171090503364949493606A7
:100140004949291E003636000000563600000814C2
:100150002241001414141414004122140802015105
:100160000906324979413E7E1111117E7F49494984
:10017000363E414141227F4141221C7F494949414C
:100180007F090909013E4149497A7F0808087F0033
:10019000417F41002040413F017F081422417F40C0
:1001A0004040407F020C027F7F0408107F3E4141A7
:1001B000413E7F090909063E4151215E7F09192907
:1001C00046464949493101017F01013F4040403FD6
:1001D0001F2040201F3F4038403F6314081463072E
:1001E000087008076151494543007F4141000204FE
:1001F0000810200041417F000402010204404040F9
:100200004040000102040020545454787F48444484
:10021000383844444420384444487F3854545418AF
:10022000087E0901020C5252523E7F0804047800F5
:10023000447D40002040443D007F102844000041A0
:100240007F40007C041804787C0804047838444417
:1002500044387C14141408081414187C7C08040412
:10026000084854545420043F4440203C4040207CE3
:100270001C2040201C3C4030403C44281028440CAA
:100280005050503C4464544C440008364100000037
:100290007F00000041360800100808100800000028
:1002A000000011241FBECFEFD0E4DEBFCDBF12E0AF
:1002B000A0E0B1E0E0E1F0E300E00BBF02C0079096
:1002C0000D92AC3BB107D9F725E0ACEBB2E001C031
:1002D0001D92AF37B207E1F70E9409110C9406187E
:1002E0008FCEF999FECF92BD81BD60BDFA9AF99A81
:1002F0000895F999FECF92BD81BDF89A81E090E012
:10030000A2D080B508958A30910560F084369105B9
:1003100058F0883E23E0920748F08031974240F041
:1003200085E0089581E0089582E0089583E00895CE
:1003300084E008950F931F93CF93DF93EC018B011B
:10034000E2DFE82FF0E0E00FF11F2AE030E0E017F5
:10035000F10749F03197CE01B9010E94F215805D95
:100360008083EB01F4CFDF91CF911F910F9108951E
:10037000CF92DF92EF92FF92CF93C1E02AE0C22E9C
:10038000D12CE12CF12C6A3071058105910540F0EA
:10039000CF5FA70196010E941916CA01B901F3CFD8
:1003A0008C2FCF91FF90EF90DF90CF9008958F9298
:1003B0009F92AF92BF92CF92DF92EF92FF920F93F4
:1003C0001F93CF93DF93F62EE72ED82EC92E8A01E6
:1003D000C1E02AE0822E912CA12CB12C6A3071054B
:1003E0008105910540F0CF5FA50194010E94191687
:1003F000CA01B901F3CFD0E0C00FD11F8AE0882E27
:10040000912CA12CB12CC017D10781F021976F2D11
:100410007E2D8D2D9C2DA50194010E941916605DE5
:100420006883F22EE32ED42EC52EEDCFDF91CF912F
:100430001F910F91FF90EF90DF90CF90BF90AF9002
:100440009F908F90089520E030E0281739074CF4F2
:1004500047E053E0000041505109E1F72F5F3F4F63
:10046000F4CF0895169888B9179A0000179882E07B
:1004700090E0E9CF81E0F6CF813110F4815801C0DE
:100480008155F0CF169A88B9179A0000179881E025
:1004900090E0D9CFEF92FF920F931F93CF93DF930A
:1004A000182FF62E072FE6DFCF2DD02F7E01888163
:1004B000882351F001E0010F812FDEDF2196F70143
:1004C0008081E0DF102FF2CFDF91CF911F910F914C
:1004D000FF90EF900895EF92FF921F93CF93DF93D9
:1004E00084E690E0B0DF88E3BDDF86E0BBDF8EE02E
:1004F000B9DF81E0B7DF8AE090E0A5DF80E4B2DF1A
:1005000086E0E82E81E0F82E10E4C0E0D0E08C2FE9
:10051000810FA8DFD701ED91FC91EC0FFD1F8081C9
:10052000B1DF81E090E08FDF2196C830D10579F707
:10053000185FB2E0EB0EF11C103839F78AE090E05A
:10054000DF91CF911F91FF90EF907DCFAF92BF923F
:10055000CF92DF92EF92FF920F931F93CF93DF938F
:10056000CDB7DEB78C01CDB6DEB6CDDEB82E2DB759
:100570003EB7281B31090FB6F8943EBF0FBE2DBF02
:100580008DB79EB701967C01BC01C801D3DEAE2CAD
:100590008701802F8A198B1528F4F80181918F012A
:1005A00071DFF7CF0FB6F894DEBE0FBECDBEDF9180
:1005B000CF911F910F91FF90EF90DF90CF90BF9060
:1005C000AF9008957F928F929F92AF92BF92CF92F9
:1005D000DF92EF92FF920F931F93CF93DF93CDB7EC
:1005E000DEB74B015C01CDB6DEB6C2DE782E2DB78C
:1005F0003EB7281B31090FB6F8943EBF0FBE2DBF82
:100600008DB79EB701967C01AC01C501B401CFDE68
:10061000BE2C8701802F8B19871528F4F801819152
:100620008F0130DFF7CF0FB6F894DEBE0FBECDBE20
:10063000DF91CF911F910F91FF90EF90DF90CF90BE
:10064000BF90AF909F908F907F90089581309105DB
:1006500079F024F4892B09F46EC007C0823091052B
:10066000D1F08330910509F462C080E090E06BC066
:1006700020916605222341F020915A0530915B05B7
:10068000232B11F082E090E020916F05222309F4E2
:100690005AC020E054C02091660540915A055091FF
:1006A0005B05222319F04115510511F481E090E01A
:1006B00020917505622F70E0E0EA2E9F90011124D1
:1006C00020523E4F4217530730F5E8E7E69F90016E
:1006D000E79F300D112428593E4F42175307E8F485
:1006E000E0E5E69F9001E79F300D112420513F4F38
:1006F00042175307A0F4E8E2E69F9001E79F300D10
:10070000112428583F4F4217530758F421E0452B36
:1007100049F420E007C02FE105C02FE003C027E027
:1007200001C023E030916F05311109C00CC0209148
:100730007605222339F020E081E090E004C083E0D8
:1007400090E001C020E032B1307E232B22B9089521
:100750008130910599F05CF4892B59F5109253037F
:100760001092520380E090E00E942D141FC082304E
:10077000910549F083309105A9F01BC020917105C6
:1007800021111AC004C020916605211124C02091B6
:100790005203309153032F5F3F4F30935303209305
:1007A0005203089520916605211124C081E090E054
:1007B000089580E090E00895809152039091530352
:1007C000909351038093500310925303109252035D
:1007D00082E090E0DCCF209152033091530380916E
:1007E000500390915103820F931F0E942D1483E0B8
:1007F00090E0CDCF0895CF93DF93EC01009719F0EF
:10080000019771F060C0109243031092440310925C
:1008100045031092460310924203C1E0D0E055C058
:1008200080916605882309F450C0809142038F5F50
:1008300062E30E94E615909342038091720588233B
:1008400031F080916205909163055DDD01C080E02B
:1008500090E2981B892F10DE809142038A3110F4B8
:1008600082E001C080E20EDE809172058823D1F023
:100870008091620590916305A0916405B091650532
:1008800040914303509144036091450370914603A6
:1008900084179507A607B70721F40097A105B105AE
:1008A00009F454DE8091620590916305A09164057E
:1008B000B09165058093430390934403A09345034F
:1008C000B093460302C0C0E0D0E0CE01DF91CF91EB
:1008D00008958FEE8BB90000489B29C0499B29C021
:1008E0004A9B29C04B9B29C08FED8BB90000489BC8
:1008F00026C0499B26C04A9B26C04B9B26C08FEB37
:100900008BB90000489B23C0499B23C04A9B23C04E
:100910004B9B23C08FE78BB90000489B20C0499BAD
:1009200020C04A9B20C04B9B20C080E0089581E3FB
:10093000089584E3089587E308958AE2089582E3A1
:10094000089585E3089588E3089580E3089583E397
:10095000089586E3089589E3089583E2089581E484
:10096000089582E4089583E4089584E40895CF937C
:10097000DF93EC018130910541F08230910589F0DF
:10098000892B99F41092690513C0A3DF8823A1F085
:10099000A0DF8093690581E080937705C2E0D0E015
:1009A0000BC097DF882321F007C0C0E0D0E004C06F
:1009B00010927705C1E0D0E0CE01DF91CF9108958C
:1009C00060933A0170933B0180933C0190933D0109
:1009D0006093540370935503809356039093570389
:1009E00008958BE0809381008DE790E090938900DB
:1009F0008093880082E080936F00109285001092AF
:100A0000840080913A0190913B01A0913C01B0910A
:100A10003D018093540390935503A0935603B093E4
:100A200057038FB780688FBF08951F920F920FB63C
:100A30000F9211248F939F93AF93BF938091540390
:100A400090915503A0915603B09157030197A109C6
:100A5000B1098093540390935503A0935603B09328
:100A60005703892B8A2B8B2B99F481E080935803B1
:100A700080913A0190913B01A0913C01B0913D01E0
:100A80008093540390935503A0935603B093570358
:100A9000BF91AF919F918F910F900FBE0F901F90BC
:100AA00018951F93CF93DF93182F86E090E00E9454
:100AB000E516EC01812F90E00E94E516998388836A
:100AC0001A821B821C821D83CE01DF91CF911F9160
:100AD0000895FC0194818581981788F48381A08111
:100AE000B181A80FB11D6C9383818F5F65810E94D6
:100AF000E615938384818F5F848380E0089581E08D
:100B0000089581309105A1F08230910541F1892B42
:100B100059F5E0915C05F0915D0512821382148213
:100B2000E0915E05F0915F051282138214821FC06E
:100B3000209177052223E9F080916605609169058F
:100B4000811105C080915C0590915D0504C0809184
:100B50005E0590915F05BDDF82E090E008952091F1
:100B60007705211106C003C080E090E0089581E080
:100B700090E00895FC018481882389F08281A0811E
:100B8000B181A80FB11D2C911C9282818F5F65816C
:100B90000E94E6159283848181508483822F089578
:100BA000CF93DF93EC018230910509F440C02CF41F
:100BB000009769F0019771F06BC18430910509F4D9
:100BC000C3C00CF478C0059709F40EC161C10E943E
:100BD0001E1407C10E94281480916605811106C069
:100BE00060E070E0CB010E94B513FBC08091670507
:100BF00090916805FC012481222321F0BBDF0E9433
:100C00001E14B0C020915A0530915B0521153105A5
:100C100039F380917505F4E68F9FC0011124845D3E
:100C20009E4F82179307E0F20E941E1405C1809127
:100C300066058823A9F28091670590916805FC01FB
:100C4000248121118EC08091750520915A05309123
:100C50005B05482F50E0FCE38F9FC00111248C54AA
:100C60009F4F8217930700F564E6649FC001659F5C
:100C7000900D1124845D9E4F82179307A8F08091F8
:100C80003F03803128F460E070E086E993E48DC092
:100C900060E070E08FEA93E40E94B51380913F0317
:100CA0008E3108F08FC090C060E070E088EC93E473
:100CB0000E94B513D9C080916605882309F490CFAE
:100CC0008091670590916805FC012481211149C03C
:100CD0008091750520915A0530915B05E82FF0E071
:100CE00048EC849FC0011124885A9D4F66E070E053
:100CF0000E9406166217730700F54CE34E9FC00171
:100D00004F9F900D11248C549F4F82179307A8F08A
:100D100080913F038B3028F460E070E088EC93E42E
:100D200044C060E070E081EE93E40E94B5138091CE
:100D30003F03843108F046C047C060E070E08AEFAE
:100D400093E40E94B51395C080916605882309F449
:100D500047CF8091670590916805FC01248122238B
:100D600031F008DF10923F03C5E0D0E093C020913E
:100D70005A0530915B052115310561F180917505AA
:100D8000F8EC8F9FC0011124885A9D4F66E070E0F7
:100D90000E94061662177307E8F080913F038630C1
:100DA00038F460E070E08AEF93E40E94B5130CC061
:100DB00060E070E889E094E40E94B51380913F03FD
:100DC0008A3010F010923F0380913F038F5F809331
:100DD0003F0360C060E070E0CB010E94B513109249
:100DE0003F03C1E0D0E056C080916605882309F436
:100DF000F7CEE0915A05F0915B05309709F4F0CEFB
:100E000080913F038832D0F120917505422F50E048
:100E10006CE3269F900111242C543F4F2E173F075F
:100E200080F464E6649FC001659F900D1124845D89
:100E30009E4F8E179F0728F010923F03C2E0D0E02C
:100E400029C068EC649FC001659F900D1124885AE9
:100E50009D4F66E070E00E9406166E177F0748F40B
:100E60002E173F0708F4BCCE10923F03C3E0D0E03A
:100E700011C010923F03C4E0D0E00CC08F5F80939C
:100E80003F0360E070E086E194E40E94B51302C085
:100E9000C0E0D0E0CE01DF91CF910895809175053B
:100EA000813039F018F0823039F0089561E085E43E
:100EB00005C061E08DE402C061E088E40C941D137C
:100EC000AF92BF92CF92DF92EF92FF920F931F9358
:100ED000CF93DF93CDB7DEB78C01ADB6BEB613DAD4
:100EE000D82E8DB79EB78D1991090FB6F8949EBF75
:100EF0000FBE8DBFEDB7FEB731967F01BF01C801B0
:100F000019DACE2C8701802F8C198D1538F461E009
:100F1000F80181918F010E941D13F5CF0FB6F8944F
:100F2000BEBE0FBEADBEDF91CF911F910F91FF905E
:100F3000EF90DF90CF90BF90AF900895CF93DF9365
:100F4000EC010E94EF12C230D10509F48CC054F5B7
:100F5000209709F45CC0219709F02AC160E080E085
:100F60000E949E1361E086EA91E00E948F136AE07E
:100F700080E00E949E1361E08FEA91E00E948F134F
:100F80008DDF6EE180E00E949E1361E08CEB91E0CA
:100F90000E948F1368E280E00E949E1361E08BEC58
:100FA00091E004C1C430D10509F4D4C00CF48DC063
:100FB000259709F0FDC060E080E00E949E1361E08B
:100FC00083E292E00E948F136AE080E00E949E1309
:100FD00061E08EE292E00E948F1364E180E00E9463
:100FE0009E1361E08CE392E00E948F136EE180E03B
:100FF0000E949E1361E084E492E00E948F1368E2F5
:1010000080E00E949E1361E080E592E0CFC060E046
:1010100080E00E949E1361E085E691E00E948F13BC
:101020006AE080E00E949E1361E08FE691E00E94FA
:101030008F1364E180E00E949E1361E08BE791E0F2
:101040000E948F136EE180E00E949E1361E089E8A8
:1010500091E00E948F1368E280E00E949E1361E09D
:1010600087E991E0A3C060E080E00E949E1361E008
:1010700081ED91E00E948F138091740590E00196BC
:101080001FDF61E08BED91E00E948F138AE090E01A
:1010900017DF6AE080E00E949E1361E08DED91E031
:1010A0000E948F1380916B0590916C0509DF64E1BC
:1010B00080E00E949E1361E085EE91E00E948F1314
:1010C0008091730590E0FCDE73C060E080E00E94D8
:1010D0009E1361E08DEE91E00E948F136AE080E044
:1010E0000E949E1361E086EF91E00E948F1364E1FD
:1010F00080E00E949E1380916B0590916C05E0DE6C
:101100006EE180E00E949E1380915805882331F0A3
:1011100061E083E092E00E948F1314C0809161052A
:101120008823B1F381508A3068F461E08FE092E067
:101130000E948F138091610590E0C2DE61E089E238
:101140000E941D1368E280E00E949E1361E08BE123
:1011500092E02CC060E080E00E949E1361E08AE58E
:1011600092E00E948F136AE080E00E949E1361E08B
:1011700085E692E00E948F1391DE64E180E00E9498
:101180009E1361E08FE692E00E948F136EE180E093
:101190000E949E1361E087E792E00E948F1368E24D
:1011A00080E00E949E1361E081E892E00E948F132C
:1011B000DF91CF910C94A313CF93DF93EC01809137
:1011C0004E0390914F0390934D0380934C03C8308E
:1011D000D10508F004C1FE01EA5BFF4F0C943B16F9
:1011E0001092710510926605109275058FEF80932D
:1011F00070051092590510927805109257051092BB
:10120000760510924F0310924E0380E090E096DE38
:10121000BFC01092710510926605109276058091FC
:101220005C0590915D05FC012481222309F4D9C05D
:10123000A1DC813461F481E08093710581E090E06C
:1012400090934F0380934E03C2E0D0E0CAC0823433
:1012500049F484E090E090934F0380934E03C7E0FD
:10126000D0E0BFC0833461F481E08093700585E0F5
:1012700090E090934F0380934E03C5E0D0E0B1C05F
:10128000843409F0AEC081E080935905C6E0D0E017
:10129000A8C080915C0590915D05FC01248122230A
:1012A00009F49FC067DC833209F09BC0109271057E
:1012B00081E08093660582E090E090934F038093F5
:1012C0004E033CDEC3E0D0E08CC080916F058823E4
:1012D00061F01092660510924B0383E090E09093CA
:1012E0004F0380934E03C4E0D0E080916A058823C9
:1012F00009F477C080914E0390914F031FDE71C0B7
:101300001DDEE0915C05F0915D05848190914B03B9
:10131000882359F0943148F0CF012CDC813409F056
:1013200060C081E0809376052CC0943108F059C0EC
:101330009F5F90934B0355C080915C0590915D0534
:10134000FC012481222309F44CC014DC813411F403
:1013500081E010C0823439F4809170058A3008F041
:1013600040C08F5F07C0833441F4809170058230A4
:10137000C0F181508093700534C0843491F510928F
:10138000700510924F0310924E0302C0109259053F
:10139000C1E0D0E026C080915C0590915D05FC0124
:1013A00024812223F1F0E6DB813439F410924F03DB
:1013B00010924E0310927505EBCF823431F41092E7
:1013C0004F0310924E0381E007C0833451F4109212
:1013D0004F0310924E0382E080937505D9CFC0E091
:1013E000D0E080914E0390914F0321E0853091052C
:1013F00009F020E02093570520914C0330914D03D4
:101400008217930721F0C330D10509F097DDCE0193
:10141000DF91CF910895AF92BF92CF92DF92EF927A
:10142000FF920F931F9380917505813041F060F01A
:10143000823051F40E943714FBE0AF2E09C00E94A5
:101440003714A9E0AA2E04C00E943714E5E0AE2E9E
:10145000B12CC12CD12CE12CF12C00E010E00E9429
:101460004E16C9011F910F91FF90EF90DF90CF9022
:10147000BF90AF9008952F923F924F925F926F92DC
:101480007F928F929F92AF92BF92CF92DF92EF9214
:10149000FF920F931F93CF93DF93CDB7DEB76B9778
:1014A0000FB6F894DEBF0FBECDBFB5DF2091750536
:1014B000213029F0223031F433E33D8B05C025E1A2
:1014C0002D8B02C04AE04D8B8B30910508F045C34F
:1014D000FC01E25BFF4F0C943B160E943714AD8871
:1014E000B12CC12CD12CE12CF12C00E010E00E9499
:1014F0004E1619010E943714AD880E944E1629839A
:101500003A8369817A81620D731D7A87698781E0E8
:101510000E943C02C1011AD88BE20E9442028981DA
:101520009A814AC10E943714AD88B12CC12CD12CAC
:10153000E12CF12C00E010E00E944E1629833A8342
:101540004B835C836D837E838F8398870E943714DF
:10155000AD880E944E1629873A874B875C876D8736
:101560007E878F87988B0E943714AD880E944E1615
:10157000190189819A81E985FA858E0F9F1F820D55
:10158000931D9A8F898F81E00E943C0289819A8104
:101590000E94A6028BE20E94420289859A850E94DF
:1015A000A6028BE20E944202C1010E94A602698D3E
:1015B0007A8DD8C20E943714FD892F2E312C412CF0
:1015C000512C612C712C4301AF2EB12CC12CD12C8C
:1015D000E12CF12C00E010E00E944E1601E00E9488
:1015E000AE162983211102C021E029830E943714FD
:1015F00051016201730184010E944E1601E00E94B4
:10160000AE163981320F398781E00E943C0259853C
:10161000452F50E05A874987CA010E94A6028DE2F1
:101620000E9442026981E62EF12CC7010E94A602A7
:1016300069857A856E197F0995C20E943714AD8835
:10164000B12CC12CD12CE12CF12C00E010E00E9437
:101650004E1677247394720E0E943714A09175056C
:10166000AF5FA983B9E0AB2E0E944E16E981E20F6D
:10167000E9837E9E40011124F0E18F16F7E29F0678
:10168000E4F681E00E943C02872D90E00E94A602D1
:101690008AE20E9442022981822F90E0D8C00E94F3
:1016A0003714AD88B12CC12CD12CE12CF12C00E0E9
:1016B00010E00E944E16F3E0AF2E0E9450162F5FEE
:1016C00029830E943714E0917505F0E0EE0FFF1FAB
:1016D00033961F2F110F110B5F01C12ED12EE12E5A
:1016E000F12E012F0E944E16A1E00E94CA163981E8
:1016F000329F202D1124298781E00E943C024985D8
:10170000842F90E00E94A6028FE20E94420259813B
:10171000852F90E00E94A602898569810E94E615C6
:10172000682F19C20E943714AD88B12CC12CD12C5E
:10173000E12CF12C00E010E00E944E1629833A8340
:101740004B835C836D837E838F8398870E943714DD
:10175000AD880E944E1601E00E94AE1619010E944B
:101760003714E981FA81E20DF31DFA87E9871F2F0B
:10177000110F110BA984BA84C12ED12EE12EF12EA6
:10178000012F0E944E16E22EF12C29853A852E1942
:101790003F093A87298781E00E943C0289819A812A
:1017A0000E94A6028BE20E944202C1010E94A60290
:1017B0008DE20E944202C7010E94A60269857A85D5
:1017C000D1C10E943714AD88B12CC12CD12CE12C91
:1017D000F12C00E010E00E944E16E3E0AE2E0E94D5
:1017E000501677247394720E0E9437140E944E167E
:1017F00030917505320F39830E9437140E944E16BE
:10180000E0907505E20E4981749EC0011124F12C0F
:101810008E9D40018F9D900C9E9D900C112450E157
:10182000851657E295066CF681E00E943C02872DF2
:1018300090E00E94A6028AE20E9442026981862FFD
:1018400090E00E94A6028AE20E944202C7010E9422
:10185000A602B40187C10E943714AD88B12CC12CF7
:10186000D12CE12CF12C00E010E00E944E16F3E0A8
:10187000AF2E0E9450162C5F622E712CF8D7E0918B
:101880007505F0E0EE0FFF1F1F2F110F110B5F0109
:10189000C12ED12EE12EF12E012F0E944E16A2E074
:1018A0000E94CA164901689CC001699C900D789CF1
:1018B000900D11249A8F898FDAD719012A0169872F
:1018C000798B4C01498D5A8D9A0140E050E060E0DF
:1018D00070E0CB0129833A834B835C836D837E83E5
:1018E0008F839887C4D72A8B3B8F4B8B5C8B6D8BF8
:1018F0007E8B8F8B988FA980BA80C12CD12CE12C44
:10190000F12C00E010E09101A20169857989C40100
:101910000E944E1601E00E94AE16922E00E02A8927
:101920003B8D4B895C896D897E898F89988D0E945A
:101930004E16B3E0AB2EB12C0E945016920E93942B
:10194000598D5919598381E00E943C0288E20E9416
:101950004202892C912CC4010E94A6028BE20E94B3
:1019600042027981672F70E07A836983CB010E94FC
:10197000A60289E20E9442028FE20E944202C30153
:101980000E94A60289819A81880D991DB3010E9447
:101990000616E8C03D89232F30E040E050E060E0CB
:1019A00070E0CB0129833A834B835C836D837E8314
:1019B0008F8398875CD729803A80AB81AC8BEC8190
:1019C000E987FD81F98BAE81AA8BEF81EB8BAD8826
:1019D000B12CC12CD12CE12CF12C00E010E00E94A4
:1019E0004E16B3E0AB2E0E94501666246394620E2E
:1019F0003ED7AD880E944E16E3E0AE2E0E945016F0
:101A00002F5F712C822E912C2301480C591CF6E07B
:101A10004F1651047CF22BD7A0917505AD8B510167
:101A2000CC88D984E988FA880B8918850E944E16DB
:101A3000AD89EA2FF0E03196EE0FFF1F1F2F110F37
:101A4000110B5F01C12ED12EE12EF12E012F0E942C
:101A50005016ED89E20FEE2EF12CE49C9001E59CEE
:101A6000300DF49C300D11243A83298381E00E94CB
:101A70003C0288E20E944202C3010E94A6028BE25D
:101A80000E944202C4010E94A60289E20E94420210
:101A90008AE20E944202C7010E94A60269817A81FD
:101AA00061C0E5D62983E3D6F3E0AF2EB12CC12C7B
:101AB000D12CE12CF12C00E010E00E944E162D5F9D
:101AC000298781E00E943C02398131703E5F832E7C
:101AD000912CC4010E94A6028EE50E944202498513
:101AE000E42EF12CC7010E94A602B40180E051E06F
:101AF000E51AF108282F30E02E153F059CF5FB0173
:101B0000E89DB001E99D700DF89D700D11248F5F67
:101B1000F1CFADD6EAE0AE2EB12CC12CD12CE12C08
:101B2000F12C00E010E00E944E162A5F298381E02C
:101B30000E943C0281E00E94420288E20E9442022E
:101B4000F981FF9FC00111240E94A60289E20E9430
:101B500042022981622F70E005C088E50E9442029E
:101B600060E070E0CB016B960FB6F894DEBF0FBE5D
:101B7000CDBFDF91CF911F910F91FF90EF90DF903C
:101B8000CF90BF90AF909F908F907F906F905F901D
:101B90004F903F902F9008958153893030F4E82F73
:101BA000F0E0EE54FD4F8081089580E00895CF92DB
:101BB000DF92EF92FF921F93CF93DF93EC01883077
:101BC000910508F0C8C1FC01E75AFF4F0C943B1681
:101BD000E0916705F09168051282138214821092D9
:101BE0006B0510926C0510926D0510926E051092A7
:101BF0005B0510925A0510926205109263051092CF
:101C00006405109265051092720510927405109289
:101C1000600510924A0310924903109248031092F3
:101C2000470310926F051092780510927305109279
:101C3000580510926A0592C180916605882311F0BB
:101C4000C2E0D0E010926B0510926C0510926D0509
:101C500010926E0583E080937305109274058AE0FC
:101C6000809360057DC107DC90934A03809349030C
:101C700080917505813031F040F0823031F488EE8A
:101C800093E005C080E293E002C088E592E0909383
:101C90005B0580935A051092720510926A051092A6
:101CA000620510926305109264051092650510920A
:101CB0004803E0916705F09168051282138214824F
:101CC000C3E0D0E04DC180915A0590915B05892B0E
:101CD00009F4DCC080915E0590915F05FC012481D0
:101CE000222309F4C9C00E94BA058A32A1F41092D5
:101CF00062051092630510926405109265051092BA
:101D000072058CE10E943C0216E080E20E944202D1
:101D10001150D9F7B1C0833209F07FC080914903D7
:101D200090914A03A0E0B0E04091620550916305B4
:101D3000609164057091650584179507A607B7073C
:101D400009F05EC080917205882309F459C00E9491
:101D50003A0210927205209174052F5F209374054A
:101D600080916005815080936005809148038823AD
:101D700019F080E090E002C088EC90E040915A05B4
:101D800050915B054C505E4F480F591F809175056F
:101D900090E00196489FB001499F700D589F700DCB
:101DA000112480916B0590916C05A0916D05B09107
:101DB0006E05860F971FA11DB11D80936B05909333
:101DC0006C05A0936D05B0936E05109247032A3001
:101DD00060F081E080936F058093780569E872E098
:101DE0000E944A02C6E0D0E047C062E972E081E0AA
:101DF0000E944A0281E080936A05C5E0D0E03CC0C1
:101E0000809148038F5F8093480360E0809167056D
:101E1000909168050E9469052FC090ED980F9A3047
:101E200058F5C0906205D0906305E0906405F0908D
:101E30006505F8EECF16F3E0DF06E104F104A8F43F
:101E4000ABDEE82FAAE0B0E0A70196011DD7DC01C8
:101E5000CB018E0F911DA11DB11D80936205909342
:101E60006305A0936405B0936505809172058111A7
:101E700003C081E08093720580915A0590915B05C3
:101E8000019790935B0580935A056AC00E943A02BD
:101E900010927205809174058F5F80937405909104
:101EA00060059150909360059091730591509093C7
:101EB000730591110CC081E080936F0580935805E4
:101EC0006BE972E00E944A02C7E0D0E049C08A3064
:101ED00060F081E080936F058093780569E872E097
:101EE0000E944A02C6E0D0E03BC081E080936A05D0
:101EF0001092470369EA72E00E944A02C4E0D0E00F
:101F00002FC0809147038A3010F0C2E0D0E08F5F8D
:101F100080934703C230D10519F50E943A0220C0D0
:101F200080917605882311F0C1E0D0E01092780509
:101F3000C130D105A9F40E943A0210926F0510C079
:101F400080917605882361F00E943A0210926F0515
:101F50001092580503C0C0E0D0E002C0C1E0D0E05C
:101F6000CE01DF91CF911F91FF90EF90DF90CF9046
:101F70000895CF92DF92EF92FF920F931F93CF932A
:101F8000DF93880F880F8450C82FD0E000E010E066
:101F9000C12CD12C7601CE010E94790190E0A0E005
:101FA000B0E0002E04C0880F991FAA1FBB1F0A941F
:101FB000D2F7C80ED91EEA1EFB1E2196085F1F4FDE
:101FC0000032110541F7C701B601DF91CF911F9192
:101FD0000F91FF90EF90DF90CF900895CF92DF9216
:101FE000EF92FF92CF936B017C01C1E08C2FC1DF98
:101FF0006C157D058E059F0558F08C2FBADFC6162F
:10200000D706E806F90631F0CF5FCB3079F702C08A
:102010008C2F01C080E0CF91FF90EF90DF90CF90A8
:102020000895CF92DF92EF92FF921F93CF93DF93A9
:102030006A017B01880F880F8450C82FD0E014E01C
:102040006C2DCD2CDE2CEF2CFF24CE010E947101D3
:10205000115021961111F4CFDF91CF911F91FF9074
:10206000EF90DF90CF900895CF92DF92EF92FF92A2
:102070001F93CF93DF938823D9F06A017B01C82F88
:10208000DAE0CD1750F41FEF1D0F812F72DFAB0187
:10209000BC018D2FC6DFD12FF4CFB701A6018C2F45
:1020A000DF91CF911F91FF90EF90DF90CF90B9CF4C
:1020B000DF91CF911F91FF90EF90DF90CF90089527
:1020C000CF93DF93C0E0D0E060E0CE010E947101C9
:1020D0002196C832D105C1F7DF91CF910895CF93F2
:1020E000DF93EC018230910509F453C02CF4009782
:1020F00061F0019781F087C08330910509F466C0D3
:10210000049709F080C0DCDF7BC0109241038FEFA1
:102110008093610575C08091780581112CC08091F4
:10212000590581112BC0809170059FEF980F9A304F
:10213000A0F4909141038917D9F090915705992304
:10214000B9F080934003809341030E943A0281E0FA
:102150000E943C02C2E0D0E013C0811109C080910E
:102160004103882329F0109241030E943A0208C0DB
:102170001092400305C0C3E0D0E002C0C4E0D0E04C
:1021800080917605882309F440C08FEF8093610524
:102190003CC083E20E9442028091400390E00E9492
:1021A000A60280E20E94420280914003843010F433
:1021B00083E001C080E00E94420281E10E943C0273
:1021C00080914003D6DE0E94E2021AC060916B0546
:1021D00070916C0580916D0590916E05FFDEC82FA2
:1021E000882361F040916B0550916C0560916D05FD
:1021F00070916E0539DFC093610502C010926105D0
:10220000C1E0D0E002C0C0E0D0E0CE01DF91CF91CC
:102210000895CF93DF93CDB7DEB76B970FB6F894E1
:10222000DEBF0FBECDBF8FEF81B912B89FE794B963
:1022300090E895B987B918B880EF8AB98FE08BB963
:1022400081E00E94510590935D0580935C0581E0DB
:102250000E94510590935F0580935E0581E00E9486
:102260005105909368058093670582E1EAE4F1E007
:10227000DE01119601900D928A95E1F789E0ECE577
:10228000F1E0DE01539601900D928A95E1F71092EC
:10229000340360913601709137018091380190913B
:1022A000390160933503709336038093370390931D
:1022B00038036093390370933A0380933B03909300
:1022C0003C0327EB34E030933E0320933D03109210
:1022D000290360932A0370932B0380932C0390931C
:1022E0002D0360932E0370932F03809330039093FC
:1022F000310321E835E03093330320933203109209
:102300001E0360931F037093200380932103909317
:1023100022036093230370932403809325039093F7
:10232000260328EA33E030932803209327031092F2
:102330001303609314037093150380931603909313
:102340001703609318037093190380931A039093F3
:102350001B032CED38E030931D0320931C031092D7
:1023600008036093090370930A0380930B0390930F
:102370000C0360930D0370930E0380930F039093EF
:10238000100327ED3DE030931203209311031092C8
:10239000FD026093FE027093FF028093000390930E
:1023A00001036093020370930303809304039093EB
:1023B00005032BEF33E030930703209306031092BD
:1023C000F2026093F3027093F4028093F50290930B
:1023D000F6026093F7027093F8028093F9029093EB
:1023E000FA022FE630E13093FC022093FB021092B8
:1023F000E7026093E8027093E9028093EA02909307
:10240000EB026093EC027093ED028093EE029093E6
:10241000EF0220ED35E03093F1022093F0021092AC
:10242000DC026093DD027093DE028093DF02909302
:10243000E0026093E1027093E2028093E3029093E2
:10244000E40226E233E03093E6022093E5020E94A4
:10245000E0040E94F1040E946B020E943A0281E0B3
:102460000E943C0287D0BBD0CE0143965C014E0156
:102470009CE1890E911C1F9910C0FE013196A1911B
:10248000B19115961D921D921D921C9218971C9247
:10249000EA15FB05A1F70E943A027501DE011196CB
:1024A0006D01F70181917F018823C1F1D6010D9162
:1024B0001C91F801458156816781708581819281E7
:1024C000A381B481481759076A077B0779F4808193
:1024D0000184F285E02D082E000C990B0995D80196
:1024E0008C93F8011582168217821086D8011596F2
:1024F0004D915D916D917C911897809136019091ED
:102500003701A0913801B0913901840F951FA61FA2
:10251000B71FF80185839683A783B087F2E0CF0EBB
:10252000D11CE814F90409F0BCCF8091580388232A
:10253000E1F3109258039FCF2C98662311F02A9A4A
:1025400001C02A9827E030E090E0AC01022E02C0E2
:10255000559547950A94E2F740FF02C0299A01C0B9
:102560002998289A28982150310978F72C9A0895AB
:1025700060E0E2CFCF93DF93249A239A229A219AA4
:10258000209A2B9A2C9A83EC99E00197F1F700C0DE
:1025900000002B988BE594E40197F1F700C0000050
:1025A0002B9A2C9881E2E4DF83E1E2DF86E0E0DF32
:1025B00082ECDEDF80E2DCDF89E0DADF80E8D8DF92
:1025C00080E4D6DFC8EFD1E061E080E0B5DF21979D
:1025D000D9F788E0CDDF8CE0DF91CF91C9CF80E8DB
:1025E000C7DF80E4C5DF1092510510925205E9E57E
:1025F000F3E0119285E0E135F807D9F70895962FB9
:10260000969596959695E82FF0E084E5989FE00DD5
:10261000F11D1124E75AFC4F677081E090E001C082
:10262000880F6A95EAF7442319F09081892B03C03B
:1026300080959081892380830895BF92CF92DF9205
:10264000EF92FF920F931F93CF93DF93D62E95E0D7
:10265000699FE001112497E0699F80011124B12C4A
:1026600090E0809725E0289F7001299FF00C1124AD
:102670008B2D90E08C179D073CF5C12C8C2D90E0A4
:1026800080179107FCF48B2D6D2DA0D2F701E80F78
:10269000F11DEE53FF4FE491F0E08C2D97D202C074
:1026A000F595E7958A95E2F760915205809151057D
:1026B0006C0DE0FF02C041E001C040E08B0D9FDFE8
:1026C000C394DCCFB394D4CF8091510591E0980F9F
:1026D0008D2D880F880F8D0D890F843518F4809308
:1026E00051050BC010925105809152058F5F97E004
:1026F000D99E800D1124809352058091520580331C
:1027000020F01092510510925205DF91CF911F9148
:102710000F91FF90EF90DF90CF90BF9008951F939F
:10272000CF93DF93162FEC018991882319F0612F45
:1027300084DFFACFDF91CF911F91089580935105E7
:10274000609352050895CF93DF9380E811DF80E412
:102750000FDFC9E5D3E061E08991EEDE85E0C135A8
:10276000D807C9F7DF91CF910895CF92DF92EF920A
:10277000FF926B017C019B01AC016091530570914C
:1027800054058091550590915605A7D0882309F4EA
:1027900050C020E030E0A901C701B6019ED08111F0
:1027A00004C080919100887003C080919100836083
:1027B0008093910028E539E344E75FE3C701B60160
:1027C0008CD087FF07C08FEF9FEF90939900809385
:1027D000980023C020E034E244EF56E4C701B6017C
:1027E0008ED118162CF4109299001092980015C0F2
:1027F00020E030E040E053E4C701B60184D19B0102
:10280000AC0160E074E284EF9AE46BD0D2D0615006
:10281000710970939900609398001092950010923E
:102820009400C0925305D0925405E0925505F09261
:102830005605FF90EF90DF90CF90089580E480934D
:1028400090008BE08093910060E070E0CB018DCF31
:102850001092900010929100089523E0822764EF77
:1028600071E0C0D190937A058093790508950F9314
:102870001F93CF93DF93A0917905B0917A052091B2
:102880004601309147014091480150914901FCD1E6
:102890000091420110914301209144013091450182
:1028A000600F711F821F931F20913E0130913F01E5
:1028B0004091400150914101BCD170937A056093E1
:1028C00079059B0140E050E060E070E080E090E03E
:1028D000DF91CF911F910F9108959CD008F481E072
:1028E00008950CD0D2C0CAD040F0C1D030F021F44D
:1028F0005F3F19F0B3C05111FCC0B6C0D7D098F3F8
:102900009923C9F35523B1F3951B550BBB27AA2770
:1029100062177307840738F09F5F5F4F220F331FE2
:10292000441FAA1FA9F333D00E2E3AF0E0E830D0AE
:1029300091505040E695001CCAF729D0FE2F27D0B1
:10294000660F771F881FBB1F261737074807AB077F
:10295000B0E809F0BB0B802DBF01FF2793585F4FF4
:102960002AF09E3F510568F079C0C3C05F3FECF389
:10297000983EDCF3869577956795B795F7959F5FB9
:10298000C9F7880F911D9695879597F90895E1E00D
:10299000660F771F881FBB1F621773078407BA076C
:1029A00020F0621B730B840BBA0BEE1F88F7E095C7
:1029B000089504D06894B1119CC008957FD088F028
:1029C0009F5790F0B92F9927B751A0F0D1F0660F1B
:1029D000771F881F991F1AF0BA95C9F712C0B13036
:1029E00081F086D0B1E0089583C0672F782F8827C3
:1029F000B85F39F0B93FCCF3869577956795B39575
:102A0000D9F73EF490958095709561957F4F8F4FE3
:102A10009F4F0895990F0008550FAA0BE0E8FEEFAD
:102A200016161706E807F907C0F012161306E40792
:102A3000F50798F0621B730B840B950B39F40A268B
:102A400061F0232B242B252B21F408950A2609F469
:102A5000A140A6958FEF811D811D089597F99F676D
:102A600080E870E060E008959FEF80EC0895002416
:102A70000A941616170618060906089500240A94E3
:102A800012161306140605060895092E0394000C69
:102A900011F4882352F0BB0F40F4BF2B11F460FFF8
:102AA00004C06F5F7F4F8F4F9F4F089557FD905821
:102AB000440F551F59F05F3F71F04795880F97FB02
:102AC000991F61F09F3F79F08795089512161306BC
:102AD0001406551FF2CF4695F1DF08C016161706EB
:102AE0001806991FF1CF8695710561050894089520
:102AF000E894BB2766277727CB0197F908958ADFEB
:102B000008F48FEF08950BD0C0CFB1DF28F0B6DF07
:102B100018F0952309F0A2CFA7CF1124EACFC6DF82
:102B2000A0F3959FD1F3950F50E0551F629FF001E0
:102B3000729FBB27F00DB11D639FAA27F00DB11D39
:102B4000AA1F649F6627B00DA11D661F829F2227C2
:102B5000B00DA11D621F739FB00DA11D621F839F49
:102B6000A00D611D221F749F3327A00D611D231F1F
:102B7000849F600D211D822F762F6A2F11249F576D
:102B800050408AF0E1F088234AF0EE0FFF1FBB1F90
:102B9000661F771F881F91505040A9F79E3F51052F
:102BA00070F05CCFA6CF5F3FECF3983EDCF38695E8
:102BB00077956795B795F795E7959F5FC1F7FE2BDA
:102BC000880F911D9695879597F90895991B79E03F
:102BD00004C0991F961708F0961B881F7A95C9F7AD
:102BE00080950895AA1BBB1B51E107C0AA1FBB1FFC
:102BF000A617B70710F0A61BB70B881F991F5A9589
:102C0000A9F780959095BC01CD01089597FB072EFB
:102C100016F4009406D077FD08D0E4DF07FC05D059
:102C20003EF4909581959F4F0895709561957F4FE3
:102C30000895A1E21A2EAA1BBB1BFD010DC0AA1FFD
:102C4000BB1FEE1FFF1FA217B307E407F50720F015
:102C5000A21BB30BE40BF50B661F771F881F991F90
:102C60001A9469F760957095809590959B01AC01D9
:102C7000BD01CF010895EE0FFF1F0024001C0BBE05
:102C80000790F691E02D099491D0A59F900DB49FE7
:102C9000900DA49F800D911D11240895689401C08A
:102CA000E8948F929F92CF93DF9305D0DF91CF91DD
:102CB0009F908F90089588249924F401E401B0E452
:102CC0009F93AA279A158B049C04ED05FE05CF055A
:102CD000D007A10798F4AD2FDC2FCF2FFE2FE92DC1
:102CE000982C892E982F872F762F652F542F432FBE
:102CF000322F2227B85031F7BF9127C01B2EBF912A
:102D0000BB27220F331F441F551F661F771F881FC5
:102D1000991F881C991CEE1FFF1FCC1FDD1FAA1FC7
:102D2000BB1F8A149B04EC05FD05CE05DF05A0073B
:102D3000B10748F08A189B08EC09FD09CE09DF09A4
:102D4000A00BB10B21601A94E1F62EF49401AF01AF
:102D5000BE01CD01000C089597FB10F816940008F1
:102D60000F93083098F00850232F342F452F562FFB
:102D7000672F782F892F902DF4CF059497958795FD
:102D80007795679557954795379527950A95AAF7AB
:102D90000F9108950024A7FD00942A0F301D401DB7
:102DA000501D601D701D801D901D0895A29FB001D3
:102DB000B39FC001A39F700D811D1124911DB29F6F
:102DC000700D811D1124911D08950F931F93CF93B2
:102DD000DF938230910510F482E090E0E0917D0570
:102DE000F0917E0520E030E0A0E0B0E0309719F1EE
:102DF000408151810281138148175907C8F0841717
:102E0000950769F4109731F012960C931297139668
:102E10001C9327C000937D0510937E0522C02115C9
:102E2000310519F04217530718F49A01BD01EF015B
:102E3000DF01F801DBCF21153105F9F0281B390B33
:102E40002430310580F48A819B816115710521F060
:102E5000FB019383828304C090937E0580937D055C
:102E6000FE01329644C0FE01E20FF31F819391935D
:102E700022503109398328833AC020917B05309153
:102E80007C05232B41F42091020130910301309302
:102E90007C0520937B0520910001309101012115D3
:102EA000310541F42DB73EB7409104015091050121
:102EB000241B350BE0917B05F0917C05E217F307AD
:102EC000A0F42E1B3F0B2817390778F0AC014E5F9A
:102ED0005F4F2417350748F04E0F5F1F50937C0556
:102EE00040937B058193919302C0E0E0F0E0CF0135
:102EF000DF91CF911F910F910895CF93DF930097AA
:102F000009F481C0FC01329713821282A0917D05E1
:102F1000B0917E05109781F420813181820F931F3B
:102F200020917B0530917C052817390751F5F093E6
:102F30007C05E0937B0567C0ED0120E030E0CE1713
:102F4000DF0740F44A815B819E0141155105F1F094
:102F5000EA01F5CFD383C28340815181840F951F4D
:102F6000C817D90759F488819981840F951F029653
:102F7000918380838A819B8193838283211531058C
:102F800029F4F0937E05E0937D053DC0E901FB83C4
:102F9000EA8349915991C40FD51FEC17FD0761F4DD
:102FA00080819181840F951F0296E901998388831E
:102FB000828193819B838A83E0E0F0E012968D9179
:102FC0009C911397009719F0FD01DC01F7CF8D91CB
:102FD0009C9111979D012E5F3F4F820F931F20916F
:102FE0007B0530917C052817390769F4309729F45F
:102FF00010927E0510927D0502C013821282B0935A
:103000007C05A0937B05DF91CF910895F894FFCFC5
:1030100000007F0520002E0126011E011601D402AA
:10302000CC02C402BC02001F0E0E04040E1F000CD2
:103030000E0F0F0E0C0003040404040414081F0EEA
:1030400004040E1F0E040A000000010000001759BE
:10305000C50E3EEEC632539C372B340329031E03A4
:1030600013030803FD02F202E702DC020101010181
:1030700001010101014D41494E204D454E55004190
:103080003A204E65772067616D6500423A204469B9
:1030900066666963756C747900433A2048696768AD
:1030A00073636F72657300443A20576970652073CB
:1030B000636F726573004E45572047414D4500448C
:1030C0006966666963756C74793A2000507265733D
:1030D000732023206B657920746F00626567696EC9
:1030E000005175657374696F6E20002F0053636F14
:1030F00072653A20004C697665733A200047414D6D
:103100004520454E440046696E616C2053636F72E2
:10311000653A00284E6F7420736176656429002833
:10312000536176656420746F202300507265737359
:103130002041004849474853434F52455300413AC4
:10314000204A756D7020746F20233100423A204E62
:1031500065787400433A2050726576696F75730024
:10316000443A2052657475726E004449464649439C
:10317000554C54590043757272656E743A20004183
:103180003A204541535900423A204D454449554D56
:1031900000433A204841524400596F752057696EE8
:1031A0002100436F727265637421004F7574206F44
:1031B00066204C69766573210054696D65205570F1
:0C31C000210001020304050607080900B5
:00000001FF
