:1000000045C1000062C1000060C100005EC1000087
:100010005CC100005AC1000058C1000056C1000078
:1000200054C1000052C1000050C100004EC1000088
:100030004CC10000DFC5000048C1000046C10000FF
:1000400044C1000042C1000040C100003EC10000A8
:100050003CC100003AC1000038C1000036C10000B8
:1000600034C1000032C1000030C100002EC10000C8
:100070002CC100002AC1000028C1000026C10000D8
:1000800024C1000022C1000020C1000049085E0810
:100090009E08BA08D508F1081B091E096E0A970ABE
:1000A000AE0AD70AF20BF20B010C110C0000000093
:1000B0000000005F00000007000700147F147F1499
:1000C000242A7F2A122313086462364955225000DD
:1000D00005030000001C2241000041221C001408FE
:1000E0003E081408083E08080050300000080808C0
:1000F0000808006060000020100804023E514945D5
:100100003E00427F400042615149462141454B310A
:100110001814127F1027454545393C4A494930019A
:10012000710905033649494936064949291E0036F1
:100130003600000056360000081422410014141442
:100140001414004122140802015109063249794170
:100150003E7E1111117E7F494949363E414141227F
:100160007F4141221C7F494949417F090909013EDC
:100170004149497A7F0808087F00417F41002040BB
:10018000413F017F081422417F404040407F020CE4
:10019000027F7F0408107F3E4141413E7F090909EB
:1001A000063E4151215E7F09192946464949493198
:1001B00001017F01013F4040403F1F2040201F3F81
:1001C0004038403F63140814630708700807615102
:1001D000494543007F41410002040810200041418D
:1001E0007F0004020102044040404040000102043C
:1001F0000020545454787F484444383844444420C0
:10020000384444487F3854545418087E0901020C7D
:100210005252523E7F0804047800447D4000204042
:10022000443D007F1028440000417F40007C0418BA
:1002300004787C0804047838444444387C1414144A
:1002400008081414187C7C080404084854545420EA
:10025000043F4440203C4040207C1C2040201C3C6B
:100260004030403C44281028440C5050503C4464DA
:10027000544C44000836410000007F000000413625
:1002800008001008081008000000000011241FBE1C
:10029000CFEFD0E4DEBFCDBF12E0A0E0B1E0E8ECEC
:1002A000F8E200E00BBF02C007900D92AC3BB10733
:1002B000D9F725E0ACEBB2E001C01D92AE37B20732
:1002C000E1F70E947A0D0C9462149ACEF999FECF50
:1002D00092BD81BD60BDFA9AF99A0895F999FECF51
:1002E00092BD81BDF89A81E090E0A2D080B50895DA
:1002F0008A30910560F08436910558F0883E23E0FD
:10030000920748F08031974240F085E0089581E0FF
:10031000089582E0089583E0089584E008950F939E
:100320001F93CF93DF93EC018B01E2DFE82FF0E026
:10033000E00FF11F2AE030E0E017F10749F03197B4
:10034000CE01B9010E945A12805D8083EB01F4CF87
:10035000DF91CF911F910F910895CF92DF92EF928D
:10036000FF92CF93C1E02AE0C22ED12CE12CF12CD8
:100370006A3071058105910540F0CF5FA7019601B4
:100380000E948112CA01B901F3CF8C2FCF91FF9047
:10039000EF90DF90CF9008958F929F92AF92BF928F
:1003A000CF92DF92EF92FF920F931F93CF93DF9341
:1003B000F62EE72ED82EC92E8A01C1E02AE0822E21
:1003C000912CA12CB12C6A3071058105910540F06A
:1003D000CF5FA50194010E948112CA01B901F3CF38
:1003E000D0E0C00FD11F8AE0882E912CA12CB12C17
:1003F000C017D10781F021976F2D7E2D8D2D9C2D5B
:10040000A50194010E948112605D6883F22EE32EA3
:10041000D42EC52EEDCFDF91CF911F910F91FF907C
:10042000EF90DF90CF90BF90AF909F908F90089506
:1004300020E030E0281739074CF447E053E0000093
:1004400041505109E1F72F5F3F4FF4CF08951698BF
:1004500088B9179A0000179882E090E0E9CF81E010
:10046000F6CF813110F4815801C08155F0CF169A32
:1004700088B9179A0000179881E090E0D9CFEF92E1
:10048000FF920F931F93CF93DF93182FF62E072F12
:10049000E6DFCF2DD02F7E018881882351F001E047
:1004A000010F812FDEDF2196F7018081E0DF102F21
:1004B000F2CFDF91CF911F910F91FF90EF900895B0
:1004C000EF92FF921F93CF93DF9384E690E0B0DF2B
:1004D00088E3BDDF86E0BBDF8EE0B9DF81E0B7DF18
:1004E0008AE090E0A5DF80E4B2DF86E0E82E81E0DC
:1004F000F82E10E4C0E0D0E08C2F810FA8DFD701E8
:10050000ED91FC91EC0FFD1F8081B1DF81E090E067
:100510008FDF2196C830D10579F7185FB2E0EB0E76
:10052000F11C103839F78AE090E0DF91CF911F91EC
:10053000FF90EF907DCFAF92BF92CF92DF92EF927C
:10054000FF920F931F93CF93DF93CDB7DEB78C014C
:10055000CDB6DEB6CDDEB82E2DB73EB7281B31099D
:100560000FB6F8943EBF0FBE2DBF8DB79EB7019654
:100570007C01BC01C801D3DEAE2C8701802F8A1913
:100580008B1528F4F80181918F0171DFF7CF0FB639
:10059000F894DEBE0FBECDBEDF91CF911F910F91BB
:1005A000FF90EF90DF90CF90BF90AF9008957F9233
:1005B0008F929F92AF92BF92CF92DF92EF92FF9273
:1005C0000F931F93CF93DF93CDB7DEB74B015C0141
:1005D000CDB6DEB6C2DE782E2DB73EB7281B310968
:1005E0000FB6F8943EBF0FBE2DBF8DB79EB70196D4
:1005F0007C01AC01C501B401CFDEBE2C8701802F88
:100600008B19871528F4F80181918F0130DFF7CF1E
:100610000FB6F894DEBE0FBECDBEDF91CF911F9115
:100620000F91FF90EF90DF90CF90BF90AF909F9091
:100630008F907F900895CF93DF93EC0182309105E6
:10064000B1F12CF4009759F0019761F0F6C08330B6
:10065000910509F46CC0049709F4ADC0EEC00E9486
:100660008610E8C00E94901080916605811106C036
:1006700060E070E0CB010E941D10DCC020915A05A3
:1006800030915B052115310599F38091740544E69D
:10069000849FC0011124845D9E4F8217930740F30D
:1006A0000E94861010923F03C2E0D0E0C8C0809143
:1006B00066058823E9F28091740520915A053091EE
:1006C0005B05482F50E06CE3869FC00111248C54D9
:1006D0009F4F8217930700F564E6649FC001659FF2
:1006E000900D1124845D9E4F82179307A8F080918E
:1006F0003F03803128F460E070E086E993E47EC037
:1007000060E070E08FEA93E40E941D1080913F0347
:100710008E3108F080C081C060E070E088EC93E426
:100720000E941D1010923F03C3E0D0E088C080916A
:100730006605882309F49CCF8091740520915A05A1
:1007400030915B05E82FF0E048EC849FC001112454
:10075000885A9D4F66E070E00E946E126217730720
:10076000F8F44CE34E9FC0014F9F900D11248C5420
:100770009F4F82179307A0F080913F038B3028F49E
:1007800060E070E088EC93E439C060E070E081EEF6
:1007900093E40E941D1080913F038431E0F53DC039
:1007A00060E070E08AEF93E40E941D1010923F0316
:1007B000C4E0D0E044C080916605882309F458CF96
:1007C00020915A0530915B052115310561F1809129
:1007D000740568EC869FC0011124885A9D4F66E01D
:1007E00070E00E946E1262177307E8F080913F0379
:1007F000863038F460E070E08AEF93E40E941D10C8
:100800000CC060E070E889E094E40E941D108091C3
:100810003F038A3010F010923F0380913F038F5FB7
:1008200080933F030CC060E070E0CB010E941D107C
:1008300010923F03C1E0D0E002C0C0E0D0E0CE01A2
:10084000DF91CF9108958130910549F08230910573
:10085000A9F0892B09F45EC080E090E00895209112
:100860006605222309F458C020915A0530915B0592
:10087000232B09F451C082E090E008952091660591
:1008800040915A0550915B05222319F041155105FD
:1008900011F481E090E020917405622F70E0E0EAAD
:1008A0002E9F9001112420523E4F4217530730F5DE
:1008B000E8E7E69F9001E79F300D112428593E4F4D
:1008C00042175307E8F4E0E5E69F9001E79F300DFB
:1008D000112420513F4F42175307A0F4E8E2E69F4E
:1008E0009001E79F300D112428583F4F42175307BE
:1008F00058F421E0452B49F420E007C02FE105C062
:100900002FE003C027E001C023E032B1307E232B6B
:1009100022B9089581E090E008958130910599F021
:100920005CF4892B59F5109253031092520380E026
:1009300090E00E9495101FC08230910549F08330ED
:100940009105A9F01BC020916F0521111AC004C0A8
:1009500020916605211124C0209152033091530348
:100960002F5F3F4F309353032093520308952091FC
:100970006605211124C081E090E0089580E090E0B8
:100980000895809152039091530390935103809363
:100990005003109253031092520382E090E0DCCF98
:1009A0002091520330915303809150039091510351
:1009B000820F931F0E94951083E090E0CDCF0895A1
:1009C000CF93DF93EC01009719F0019771F060C0AD
:1009D0001092430310924403109245031092460371
:1009E00010924203C1E0D0E055C080916605882393
:1009F00009F450C0809142038F5F62E30E944E125F
:100A00009093420380917005882331F080916205B4
:100A1000909163056DDC01C080E090E2981B892F06
:100A200020DD809142038A3110F482E001C080E22F
:100A30001EDD809170058823D1F080916205909130
:100A40006305A0916405B091650540914303509101
:100A50004403609145037091460384179507A607E8
:100A6000B70721F40097A105B10509F464DD809171
:100A7000620590916305A0916405B091650580932E
:100A8000430390934403A0934503B093460302C0ED
:100A9000C0E0D0E0CE01DF91CF9108958FEE8BB909
:100AA0000000489B29C0499B29C04A9B29C04B9BF9
:100AB00029C08FED8BB90000489B26C0499B26C0FA
:100AC0004A9B26C04B9B26C08FEB8BB90000489BEE
:100AD00023C0499B23C04A9B23C04B9B23C08FE765
:100AE0008BB90000489B20C0499B20C04A9B20C076
:100AF0004B9B20C080E0089581E3089584E308952E
:100B000087E308958AE2089582E3089585E30895CE
:100B100088E3089580E3089583E3089586E30895C4
:100B200089E3089583E2089581E4089582E40895B5
:100B300083E4089584E40895CF93DF93EC0181303A
:100B4000910541F08230910589F0892B99F410923A
:100B5000670513C0A3DF8823A1F0A0DF809367059A
:100B600081E080937605C2E0D0E00BC097DF882358
:100B700021F007C0C0E0D0E004C010927605C1E0CB
:100B8000D0E0CE01DF91CF91089560933A01709348
:100B90003B0180933C0190933D016093540370931B
:100BA0005503809356039093570308958BE08093E9
:100BB00081008DE790E0909389008093880082E027
:100BC00080936F00109285001092840080913A010A
:100BD00090913B01A0913C01B0913D018093540361
:100BE00090935503A0935603B09357038FB7806833
:100BF0008FBF08951F920F920FB60F9211248F93FB
:100C00009F93AF93BF938091540390915503A0910C
:100C10005603B09157030197A109B109809354037A
:100C200090935503A0935603B0935703892B8A2BB7
:100C30008B2B99F481E08093580380913A01909135
:100C40003B01A0913C01B0913D01809354039093EE
:100C50005503A0935603B0935703BF91AF919F9153
:100C60008F910F900FBE0F901F9018951F93CF93E9
:100C7000DF93182F86E090E00E944113EC01812F52
:100C800090E00E944113998388831A821B821C8200
:100C90001D83CE01DF91CF911F910895FC019481B6
:100CA0008581981788F48381A081B181A80FB11D37
:100CB0006C9383818F5F65810E944E129383848140
:100CC0008F5F848380E0089581E0089581309105ED
:100CD000A1F08230910541F1892B59F5E0915C0535
:100CE000F0915D05128213821482E0915E05F0910D
:100CF0005F051282138214821FC020917605222381
:100D0000E9F08091660560916705811105C08091C9
:100D10005C0590915D0504C080915E0590915F0532
:100D2000BDDF82E090E0089520917605211106C094
:100D300003C080E090E0089581E090E00895FC0118
:100D40008481882389F08281A081B181A80FB11D9F
:100D50002C911C9282818F5F65810E944E1292833A
:100D6000848181508483822F08958091740581301D
:100D700039F018F0823039F0089561E085E405C05B
:100D800061E08DE402C061E088E40C94850FAF92CD
:100D9000BF92CF92DF92EF92FF920F931F93CF9368
:100DA000DF93CDB7DEB78C01ADB6BEB6A1DAD82ED3
:100DB0008DB79EB78D1991090FB6F8949EBF0FBEDF
:100DC0008DBFEDB7FEB731967F01BF01C801A7DA2D
:100DD000CE2C8701802F8C198D1538F461E0F80135
:100DE00081918F010E94850FF5CF0FB6F894BEBE9A
:100DF0000FBEADBEDF91CF911F910F91FF90EF908D
:100E0000DF90CF90BF90AF900895CF93DF93EC0128
:100E10000E94570FC230D10509F48CC054F52097B9
:100E200009F45CC0219709F01DC160E080E00E94D8
:100E3000061061E086EA91E00E94F70F6AE080E028
:100E40000E94061061E08FEA91E00E94F70F8DDFAB
:100E50006EE180E00E94061061E08CEB91E00E9460
:100E6000F70F68E280E00E94061061E08BEC91E0F1
:100E7000F8C0C430D10509F4D1C00CF48DC0259759
:100E800009F0F0C060E080E00E94061061E083E2BB
:100E900092E00E94F70F6AE080E00E94061061E095
:100EA0008EE292E00E94F70F64E180E00E9406105B
:100EB00061E08CE392E00E94F70F6EE180E00E9417
:100EC000061061E084E492E00E94F70F68E280E09F
:100ED0000E94061061E080E592E0C3C060E080E01F
:100EE0000E94061061E085E691E00E94F70F6AE03B
:100EF00080E00E94061061E08FE691E00E94F70F0B
:100F000064E180E00E94061061E08BE791E00E94BE
:100F1000F70F6EE180E00E94061061E089E891E041
:100F20000E94F70F68E280E00E94061061E087E906
:100F300091E097C060E080E00E94061061E081EDE2
:100F400091E00E94F70F8091720590E001961FDFFB
:100F500061E08BED91E00E94F70F85E090E017DFF4
:100F60006AE080E00E94061061E08DED91E00E9451
:100F7000F70F8091690590916A0509DF64E180E0CF
:100F80000E94061061E085EE91E00E94F70F8091CB
:100F9000710590E0FCDE66C060E080E00E94061013
:100FA00061E08DEE91E00E94F70F6AE080E00E9420
:100FB000061061E086EF91E00E94F70F64E180E0A7
:100FC0000E9406108091690590916A05E0DE6EE14D
:100FD00080E00E94061080915805882331F061E07E
:100FE00083E092E00E94F70F12C080916105882390
:100FF000B1F381508A3058F461E08FE092E0F7D786
:101000008091610590E0C3DE61E089E27ED768E20D
:1010100080E0FCD761E08BE192E023C060E080E0FB
:10102000F5D761E08AE592E0E2D76AE080E0EED7AA
:1010300061E085E692E0DBD798DE64E180E0E6D708
:1010400061E08FE692E0D3D76EE180E0DFD761E028
:1010500087E792E0CCD768E280E0D8D761E081E80A
:1010600092E0C5D7DF91CF91D6C7CF93DF93EC0144
:1010700080914E0390914F0390934D0380934C03C6
:10108000C830D10508F000C1FE01EA5BFF4F0C94A7
:10109000A31210926F0510926605109274058FEFDF
:1010A00080936E05109259051092750510924F03AA
:1010B00010924E0380E090E0A8DED1C010926F0540
:1010C000109266051092750580915C0590915D0502
:1010D000FC012481222309F4D9C031DE813461F47A
:1010E00081E080936F0581E090E090934F038093BF
:1010F0004E03C2E0D0E0CAC0823449F484E090E0FC
:1011000090934F0380934E03C7E0D0E0BFC0833479
:1011100061F481E080936E0585E090E090934F0349
:1011200080934E03C5E0D0E0B1C0843409F0AEC076
:1011300081E080935905C6E0D0E0A8C080915C05AD
:1011400090915D05FC012481222309F49FC0F7DD05
:10115000833209F09BC010926F0581E08093660591
:1011600082E090E090934F0380934E034EDEC3E005
:10117000D0E08CC080916D05882361F010926605E7
:1011800010924B0383E090E090934F0380934E03C3
:10119000C4E0D0E080916805882309F477C080918D
:1011A0004E0390914F0331DE71C02FDEE0915C055C
:1011B000F0915D05848190914B03882359F094311F
:1011C00048F0CF01BCDD813409F060C081E080933C
:1011D00075052CC0943108F059C09F5F90934B0364
:1011E00055C080915C0590915D05FC01248122230E
:1011F00009F44CC0A4DD813411F481E008C08234CC
:1012000049F480916E058A3008F040C08F5F80936A
:101210006E053CC0833431F480916E058230B0F1AC
:101220008150F5CF10926E05843481F510924F03F2
:1012300010924E0314C01092590511C080915C05A4
:1012400090915D05FC012481222301F178DD813438
:1012500049F410924F0310924E0310927405C1E0AE
:10126000D0E014C0823431F410924F0310924E0338
:1012700081E007C0833451F410924F0310924E0363
:1012800082E080937405EBCFC0E0D0E080914E0304
:1012900090914F0321E08530910509F020E02093E3
:1012A000570520914C0330914D038217930721F08D
:1012B000C330D10509F0A9DDCE01DF91CF910895AA
:1012C0002F923F924F925F926F927F928F929F9256
:1012D000AF92BF92CF92DF92EF92FF920F931F9344
:1012E000CF93DF93CDB7DEB763970FB6F894DEBF29
:1012F0000FBECDBF24D7E3E0AE2EB12CC12CD12C34
:10130000E12CF12C00E010E00E94B612C9012091FE
:101310007405213029F0223031F433E3398B05C0D4
:1013200025E1298B02C0EAE0E98B8130910539F192
:10133000029709F463C003D7A988B12CC12CD12C22
:10134000E12CF12C00E010E00E94B6121901F7D652
:10135000A9880E94B61229833A8329813A81220DF5
:10136000331D3A87298781E07CD8C101E4D88BE21C
:101370007ED889819A81DFD889859A857AC0DFD61F
:10138000A988B12CC12CD12CE12CF12C00E010E06B
:101390000E94B61229833A834B835C836D837E83DC
:1013A0008F839887CCD6A9880E94B61229873A875E
:1013B0004B875C876D877E878F87988BC0D6A9887F
:1013C0000E94B612190189819A8129853A85820F76
:1013D000931F820D931D9B8B8A8B81E042D889815C
:1013E0009A81A9D88BE243D889859A85A4D88BE2C3
:1013F0003ED8C101A0D88A899B893BC0A0D6E98983
:101400002E2E312C412C512C612C712C4301AE2EEF
:10141000B12CC12CD12CE12CF12C00E010E00E9469
:10142000B61201E00E9416132983211102C021E0A7
:10143000298385D651016201730184010E94B6128D
:1014400001E00E9416133981320F398781E009D8F3
:101450009985892F90E09A8789876DD88DE207D882
:10146000E9818E2E912CC40166D889859A858819C8
:10147000990963960FB6F894DEBF0FBECDBFDF911A
:10148000CF911F910F91FF90EF90DF90CF90BF9081
:10149000AF909F908F907F906F905F904F903F9014
:1014A0002F9008958153893030F4E82FF0E0EE5406
:1014B000FD4F8081089580E00895CF92DF92EF92F2
:1014C000FF921F93CF93DF93EC018830910508F0D2
:1014D000B1C1FC01E25BFF4F0C94A31210926905AD
:1014E00010926A0510926B0510926C0510925B05C4
:1014F00010925A05109262051092630510926405CD
:101500001092650510927005109272051092600598
:1015100010924A03109249031092480310926D05ED
:1015200010927705109273051092710586C1809113
:101530006605882311F0C2E0D0E010926905109290
:101540006A0510926B0510926C0583E0809371051B
:101550001092720585E08093600573C1B1DE9093AF
:101560004A038093490380917405813031F040F043
:10157000823031F488EE93E005C080E293E002C04F
:1015800088E592E090935B0580935A051092700570
:10159000109268051092620510926305109264051E
:1015A0001092650510924703C3E0D0E04AC1109243
:1015B000730580915A0590915B05892B09F4D7C07A
:1015C00080915E0590915F05FC012481222309F43E
:1015D000C4C0B5DB8A32A1F4109262051092630593
:1015E0001092640510926505109270058CE10E94BE
:1015F000310216E080E20E9437021150D9F7ADC0E7
:10160000833209F07BC08091490390914A03A0E0A6
:10161000B0E040916205509163056091640570915E
:10162000650584179507A607B70709F05EC0809186
:101630007005882309F459C00E942F02109270058A
:10164000209172052F5F2093720580916005815073
:101650008093600580914703882319F080E090E033
:1016600002C088EC90E040915A0550915B054C50C7
:101670005E4F480F591F8091740590E00196489F76
:10168000B001499F700D589F700D1124809169051C
:1016900090916A05A0916B05B0916C05860F971F1C
:1016A000A11DB11D8093690590936A05A0936B05F8
:1016B000B0936C0510924803253060F081E0809370
:1016C0006D058093770569E872E00E943F02C6E0ED
:1016D000D0E010C062E972E081E00E943F0281E048
:1016E00080936805C5E0D0E005C0809147038F5F17
:1016F0008093470381E0809373052FC090ED980F8E
:101700009A3058F5C0906205D0906305E09064056A
:10171000F0906505F8EECF16F3E0DF06E104F10482
:10172000A8F4C0DEE82FAAE0B0E0A701960114D724
:10173000DC01CB018E0F911DA11DB11D80936205AF
:1017400090936305A0936405B0936505809170053F
:10175000811103C081E08093700580915A059091BA
:101760005B05019790935B0580935A056AC00E94C0
:101770002F0210927005809172058F5F8093720521
:1017800090916005915090936005909171059150F2
:101790009093710591110CC081E080936D05809349
:1017A00058056BE972E00E943F02C7E0D0E049C0F3
:1017B000853060F081E080936D058093770569E85E
:1017C00072E00E943F02C6E0D0E03BC081E080931F
:1017D00068051092480369EA72E00E943F02C4E083
:1017E000D0E02FC0809148038A3010F0C2E0D0E0F2
:1017F0008F5F80934803C230D10519F50E942F02F4
:1018000020C080917505882311F0C1E0D0E01092CE
:101810007705C130D105A9F40E942F0210926D0501
:1018200010C080917505882361F00E942F021092EC
:101830006D0503C0C0E0D0E004C010925805C1E0BF
:10184000D0E0CE01DF91CF911F91FF90EF90DF901C
:10185000CF900895CF92DF92EF92FF920F931F9354
:10186000CF93DF93880F880F8450C82FD0E000E01B
:1018700010E0C12CD12C7601CE010E946E0190E0C7
:10188000A0E0B0E0002E04C0880F991FAA1FBB1F64
:101890000A94D2F7C80ED91EEA1EFB1E2196085FD5
:1018A0001F4F0032110541F7C701B601DF91CF91FB
:1018B0001F910F91FF90EF90DF90CF900895CF92FE
:1018C000DF92EF92FF92CF936B017C01C1E08C2FEE
:1018D000C1DF6C157D058E059F0558F08C2FBADF92
:1018E000C616D706E806F90631F0CF5FCB3079F798
:1018F00002C08C2F01C080E0CF91FF90EF90DF906D
:10190000CF900895CF92DF92EF92FF921F93CF93E3
:10191000DF936A017B01880F880F8450C82FD0E0C5
:1019200014E06C2DCD2CDE2CEF2CFF24CE010E9478
:101930006601115021961111F4CFDF91CF911F91C3
:10194000FF90EF90DF90CF900895CF92DF92EF92CB
:10195000FF921F93CF93DF938823D9F06A017B0115
:10196000C82FDAE0CD1750F41FEF1D0F812F72DF63
:10197000AB01BC018D2FC6DFD12FF4CFB701A6017B
:101980008C2FDF91CF911F91FF90EF90DF90CF9040
:10199000B9CFDF91CF911F91FF90EF90DF90CF9063
:1019A0000895CF93DF93C0E0D0E060E0CE010E94C5
:1019B00066012196C832D105C1F7DF91CF91089514
:1019C000CF93DF93EC018230910509F453C02CF4DE
:1019D000009761F0019781F087C08330910509F489
:1019E00066C0049709F080C0DCDF7BC01092410321
:1019F0008FEF8093610575C08091770581112CC0B0
:101A00008091590581112BC080916E059FEF980F31
:101A10009A30A0F4909141038917D9F0909157051D
:101A20009923B9F080934003809341030E942F02D1
:101A300081E00E943102C2E0D0E013C0811109C0F0
:101A400080914103882329F0109241030E942F02C4
:101A500008C01092400305C0C3E0D0E002C0C4E05B
:101A6000D0E080917505882309F440C08FEF809302
:101A700061053CC083E20E9437028091400390E000
:101A80000E949B0280E20E943702809140038430D2
:101A900010F483E001C080E00E94370281E10E94DF
:101AA000310280914003D6DE0E94D7021AC06091B5
:101AB000690570916A0580916B0590916C05FFDE58
:101AC000C82F882361F04091690550916A056091A3
:101AD0006B0570916C0539DFC093610502C01092EF
:101AE0006105C1E0D0E002C0C0E0D0E0CE01DF91EE
:101AF000CF910895CF93DF93CDB7DEB76B970FB635
:101B0000F894DEBF0FBECDBF8FEF81B912B89FE74B
:101B100094B990E895B987B918B880EF8AB98FE081
:101B20008BB981E0A3D890935D0580935C0581E03B
:101B30009DD890935F0580935E0582E1EAE4F1E031
:101B4000DE01119601900D928A95E1F789E0ECE5AE
:101B5000F1E0DE01539601900D928A95E1F7109223
:101B60003403609136017091370180913801909172
:101B70003901609335037093360380933703909354
:101B800038036093390370933A0380933B03909337
:101B90003C032CE935E030933E0320933D03109243
:101BA000290360932A0370932B0380932C03909353
:101BB0002D0360932E0370932F0380933003909333
:101BC000310326E636E0309333032093320310923C
:101BD0001E0360931F03709320038093210390934F
:101BE000220360932303709324038093250390932F
:101BF00026032DE834E03093280320932703109226
:101C0000130360931403709315038093160390934A
:101C10001703609318037093190380931A0390932A
:101C20001B0325E338E030931D0320931C0310921F
:101C300008036093090370930A0380930B03909346
:101C40000C0360930D0370930E0380930F03909326
:101C500010032DE53AE03093120320931103109204
:101C6000FD026093FE027093FF0280930003909345
:101C70000103609302037093030380930403909322
:101C8000050320EE34E030930703209306031092FF
:101C9000F2026093F3027093F4028093F502909342
:101CA000F6026093F7027093F8028093F902909322
:101CB000FA0220EE3CE03093FC022093FB021092EB
:101CC000E7026093E8027093E9028093EA0290933E
:101CD000EB026093EC027093ED028093EE0290931E
:101CE000EF022BE133E03093F1022093F0021092E7
:101CF000DC026093DD027093DE028093DF0290933A
:101D0000E0026093E1027093E2028093E302909319
:101D1000E40223E234E03093E6022093E5020E94DD
:101D2000C5050E94D6050E9460020E942F0281E034
:101D30000E94310287D0BBD0CE0143965C014E0198
:101D40009CE1890E911C1F9910C0FE013196A19152
:101D5000B19115961D921D921D921C9218971C927E
:101D6000EA15FB05A1F70E942F027501DE0111960D
:101D70006D01F70181917F018823C1F1D6010D9199
:101D80001C91F8014581568167817085818192811E
:101D9000A381B481481759076A077B0779F48081CA
:101DA0000184F285E02D082E000C990B0995D801CD
:101DB0008C93F8011582168217821086D801159629
:101DC0004D915D916D917C91189780913601909124
:101DD0003701A0913801B0913901840F951FA61FDA
:101DE000B71FF80185839683A783B087F2E0CF0EF3
:101DF000D11CE814F90409F0BCCF80915803882362
:101E0000E1F3109258039FCF2C98662311F02A9A81
:101E100001C02A9827E030E090E0AC01022E02C019
:101E2000559547950A94E2F740FF02C0299A01C0F0
:101E30002998289A28982150310978F72C9A0895E2
:101E400060E0E2CFCF93DF93249A239A229A219ADB
:101E5000209A2B9A2C9A83EC99E00197F1F700C015
:101E600000002B988BE594E40197F1F700C0000087
:101E70002B9A2C9881E2E4DF83E1E2DF86E0E0DF69
:101E800082ECDEDF80E2DCDF89E0DADF80E8D8DFC9
:101E900080E4D6DFC8EFD1E061E080E0B5DF2197D4
:101EA000D9F788E0CDDF8CE0DF91CF91C9CF80E812
:101EB000C7DF80E4C5DF1092510510925205E9E5B5
:101EC000F3E0119285E0E135F807D9F70895962FF0
:101ED000969596959695E82FF0E084E5989FE00D0D
:101EE000F11D1124E75AFC4F677081E090E001C0BA
:101EF000880F6A95EAF7442319F09081892B03C073
:101F000080959081892380830895BF92CF92DF923C
:101F1000EF92FF920F931F93CF93DF93D62E95E00E
:101F2000699FE001112497E0699F80011124B12C81
:101F300090E0809725E0289F7001299FF00C1124E4
:101F40008B2D90E08C179D073CF5C12C8C2D90E0DB
:101F500080179107FCF48B2D6D2DA0D2F701E80FAF
:101F6000F11DE455FF4FE491F0E08C2D97D202C0B3
:101F7000F595E7958A95E2F76091520580915105B4
:101F80006C0DE0FF02C041E001C040E08B0D9FDF1F
:101F9000C394DCCFB394D4CF8091510591E0980FD6
:101FA0008D2D880F880F8D0D890F843518F480933F
:101FB00051050BC010925105809152058F5F97E03B
:101FC000D99E800D11248093520580915205803353
:101FD00020F01092510510925205DF91CF911F9180
:101FE0000F91FF90EF90DF90CF90BF9008951F93D7
:101FF000CF93DF93162FEC018991882319F0612F7D
:1020000084DFFACFDF91CF911F910895809351051E
:10201000609352050895CF93DF9380E811DF80E449
:102020000FDFC9E5D3E061E08991EEDE85E0C135DF
:10203000D807C9F7DF91CF910895CF92DF92EF9241
:10204000FF926B017C019B01AC0160915305709183
:1020500054058091550590915605A7D0882309F421
:1020600050C020E030E0A901C701B6019ED0811127
:1020700004C080919100887003C0809191008360BA
:102080008093910028E539E344E75FE3C701B60197
:102090008CD087FF07C08FEF9FEF909399008093BC
:1020A000980023C020E034E244EF56E4C701B601B3
:1020B0008ED118162CF4109299001092980015C029
:1020C00020E030E040E053E4C701B60184D19B0139
:1020D000AC0160E074E284EF9AE46BD0D2D061503E
:1020E0007109709399006093980010929500109276
:1020F0009400C0925305D0925405E0925505F09299
:102100005605FF90EF90DF90CF90089580E4809384
:1021100090008BE08093910060E070E0CB018DCF68
:102120001092900010929100089523E0822764EFAE
:1021300071E0C0D1909379058093780508950F934D
:102140001F93CF93DF93A0917805B09179052091EB
:102150004601309147014091480150914901FCD11D
:1021600000914201109143012091440130914501B9
:10217000600F711F821F931F20913E0130913F011C
:102180004091400150914101BCD170937905609319
:1021900078059B0140E050E060E070E080E090E076
:1021A000DF91CF911F910F9108959CD008F481E0A9
:1021B00008950CD0D2C0CAD040F0C1D030F021F484
:1021C0005F3F19F0B3C05111FCC0B6C0D7D098F32F
:1021D0009923C9F35523B1F3951B550BBB27AA27A8
:1021E00062177307840738F09F5F5F4F220F331F1A
:1021F000441FAA1FA9F333D00E2E3AF0E0E830D0E6
:1022000091505040E695001CCAF729D0FE2F27D0E8
:10221000660F771F881FBB1F261737074807AB07B6
:10222000B0E809F0BB0B802DBF01FF2793585F4F2B
:102230002AF09E3F510568F079C0C3C05F3FECF3C0
:10224000983EDCF3869577956795B795F7959F5FF0
:10225000C9F7880F911D9695879597F90895E1E044
:10226000660F771F881FBB1F621773078407BA07A3
:1022700020F0621B730B840BBA0BEE1F88F7E095FE
:10228000089504D06894B1119CC008957FD088F05F
:102290009F5790F0B92F9927B751A0F0D1F0660F52
:1022A000771F881F991F1AF0BA95C9F712C0B1306D
:1022B00081F086D0B1E0089583C0672F782F8827FA
:1022C000B85F39F0B93FCCF3869577956795B395AC
:1022D000D9F73EF490958095709561957F4F8F4F1B
:1022E0009F4F0895990F0008550FAA0BE0E8FEEFE5
:1022F00016161706E807F907C0F012161306E407CA
:10230000F50798F0621B730B840B950B39F40A26C2
:1023100061F0232B242B252B21F408950A2609F4A0
:10232000A140A6958FEF811D811D089597F99F67A4
:1023300080E870E060E008959FEF80EC089500244D
:102340000A941616170618060906089500240A941A
:1023500012161306140605060895092E0394000CA0
:1023600011F4882352F0BB0F40F4BF2B11F460FF2F
:1023700004C06F5F7F4F8F4F9F4F089557FD905858
:10238000440F551F59F05F3F71F04795880F97FB39
:10239000991F61F09F3F79F08795089512161306F3
:1023A0001406551FF2CF4695F1DF08C01616170622
:1023B0001806991FF1CF8695710561050894089557
:1023C000E894BB2766277727CB0197F908958ADF22
:1023D00008F48FEF08950BD0C0CFB1DF28F0B6DF3F
:1023E00018F0952309F0A2CFA7CF1124EACFC6DFBA
:1023F000A0F3959FD1F3950F50E0551F629FF00118
:10240000729FBB27F00DB11D639FAA27F00DB11D70
:10241000AA1F649F6627B00DA11D661F829F2227F9
:10242000B00DA11D621F739FB00DA11D621F839F80
:10243000A00D611D221F749F3327A00D611D231F56
:10244000849F600D211D822F762F6A2F11249F57A4
:1024500050408AF0E1F088234AF0EE0FFF1FBB1FC7
:10246000661F771F881F91505040A9F79E3F510566
:1024700070F05CCFA6CF5F3FECF3983EDCF386951F
:1024800077956795B795F795E7959F5FC1F7FE2B11
:10249000880F911D9695879597F90895991B79E076
:1024A00004C0991F961708F0961B881F7A95C9F7E4
:1024B00080950895AA1BBB1B51E107C0AA1FBB1F33
:1024C000A617B70710F0A61BB70B881F991F5A95C0
:1024D000A9F780959095BC01CD01089597FB072E33
:1024E00016F4009406D077FD08D0E4DF07FC05D091
:1024F0003EF4909581959F4F0895709561957F4F1B
:102500000895A1E21A2EAA1BBB1BFD010DC0AA1F34
:10251000BB1FEE1FFF1FA217B307E407F50720F04C
:10252000A21BB30BE40BF50B661F771F881F991FC7
:102530001A9469F760957095809590959B01AC0110
:10254000BD01CF010895EE0FFF1F0024001C0BBE3C
:102550000790F691E02D099485D0A59F900DB49F2A
:10256000900DA49F800D911D11240895689401C0C1
:10257000E8948F929F92CF93DF9305D0DF91CF9114
:102580009F908F90089588249924F401E401B0E489
:102590009F93AA279A158B049C04ED05FE05CF0591
:1025A000D007A10798F4AD2FDC2FCF2FFE2FE92DF8
:1025B000982C892E982F872F762F652F542F432FF5
:1025C000322F2227B85031F7BF9127C01B2EBF9161
:1025D000BB27220F331F441F551F661F771F881FFD
:1025E000991F881C991CEE1FFF1FCC1FDD1FAA1FFF
:1025F000BB1F8A149B04EC05FD05CE05DF05A00773
:10260000B10748F08A189B08EC09FD09CE09DF09DB
:10261000A00BB10B21601A94E1F62EF49401AF01E6
:10262000BE01CD01000C089597FB10F81694000828
:102630000F93083098F00850232F342F452F562F32
:10264000672F782F892F902DF4CF05949795879534
:102650007795679557954795379527950A95AAF7E2
:102660000F910895A29FB001B39FC001A39F700D69
:10267000811D1124911DB29F700D811D1124911D8A
:1026800008950F931F93CF93DF938230910510F439
:1026900082E090E0E0917C05F0917D0520E030E063
:1026A000A0E0B0E0309719F140815181028113819F
:1026B00048175907C8F08417950769F4109731F047
:1026C00012960C93129713961C9327C000937C05C7
:1026D00010937D0522C02115310519F042175307CB
:1026E00018F49A01BD01EF01DF01F801DBCF2115DC
:1026F0003105F9F0281B390B2430310580F48A812B
:102700009B816115710521F0FB019383828304C0D5
:1027100090937D0580937C05FE01329644C0FE01B6
:10272000E20FF31F8193919322503109398328835B
:102730003AC020917A0530917B05232B41F42091FA
:1027400002013091030130937B0520937A0520919B
:102750000001309101012115310541F42DB73EB73B
:102760004091040150910501241B350BE0917A053D
:10277000F0917B05E217F307A0F42E1B3F0B2817FF
:10278000390778F0AC014E5F5F4F2417350748F0EA
:102790004E0F5F1F50937B0540937A058193919371
:1027A00002C0E0E0F0E0CF01DF91CF911F910F91E7
:1027B0000895CF93DF93009709F481C0FC0132970D
:1027C00013821282A0917C05B0917D05109781F44F
:1027D00020813181820F931F20917A0530917B05F2
:1027E0002817390751F5F0937B05E0937A0567C008
:1027F000ED0120E030E0CE17DF0740F44A815B8135
:102800009E0141155105F1F0EA01F5CFD383C28352
:1028100040815181840F951FC817D90759F48881C9
:102820009981840F951F0296918380838A819B8171
:10283000938382832115310529F4F0937D05E0937C
:102840007C053DC0E901FB83EA8349915991C40F9E
:10285000D51FEC17FD0761F480819181840F951FCE
:102860000296E90199838883828193819B838A837D
:10287000E0E0F0E012968D919C911397009719F08B
:10288000FD01DC01F7CF8D919C9111979D012E5F89
:102890003F4F820F931F20917A0530917B052817B7
:1028A000390769F4309729F410927D0510927C0560
:1028B00002C013821282B0937B05A0937A05DF9148
:0828C000CF910895F894FFCFB9
:1028C80000007E0520002E0126011E011601D402FB
:1028D800CC02C402BC02001F0E0E04040E1F000C22
:1028E8000E0F0F0E0C0003040404040414081F0E3A
:1028F80004040E1F0E040A0000000100000017590E
:10290800C50E3EEEC632539C372B340329031E03F3
:1029180013030803FD02F202E702DC0201010101D0
:1029280001010101014D41494E204D454E550041DF
:102938003A204E65772067616D6500423A20446908
:1029480066666963756C747900433A2048696768FC
:1029580073636F72657300443A205769706520731A
:10296800636F726573004E45572047414D450044DB
:102978006966666963756C74793A2000507265738C
:10298800732023206B657920746F00626567696E18
:10299800005175657374696F6E20002F0053636F63
:1029A80072653A20004C697665733A200047414DBC
:1029B8004520454E440046696E616C2053636F7232
:1029C800653A00284E6F7420736176656429002883
:1029D800536176656420746F2023005072657373A9
:1029E8002041004849474853434F52455300413A14
:1029F800204A756D7020746F20233100423A204EB2
:102A080065787400433A2050726576696F75730073
:102A1800443A2052657475726E00444946464943EB
:102A2800554C54590043757272656E743A200041D2
:102A38003A204541535900423A204D454449554DA5
:102A480000433A204841524400596F752057696E37
:102A58002100436F727265637421004F7574206F93
:102A680066204C69766573210054696D6520557040
:0C2A780021000102030405060708090004
:00000001FF
