:1000000035C1000051C100004FC100004DC10000CA
:100010004BC1000049C1000047C1000045C10000BC
:1000200043C1000041C100003FC100003DC10000CC
:100030003BC1000077C3000037C1000035C100009C
:1000400033C1000031C100002FC100002DC10000EC
:100050002BC1000029C1000027C1000025C10000FC
:1000600023C1000021C100001FC100001DC100000C
:100070001BC1000019C1000017C1000015C100001C
:1000800013C1000011C100000FC1000000000000FA
:100090000000005F00000007000700147F147F14B9
:1000A000242A7F2A122313086462364955225000FD
:1000B00005030000001C2241000041221C0014081E
:1000C0003E081408083E08080050300000080808E0
:1000D0000808006060000020100804023E514945F5
:1000E0003E00427F400042615149462141454B312B
:1000F0001814127F1027454545393C4A49493001BB
:10010000710905033649494936064949291E003611
:100110003600000056360000081422410014141462
:100120001414004122140802015109063249794190
:100130003E7E1111117E7F494949363E414141229F
:100140007F4141221C7F494949417F090909013EFC
:100150004149497A7F0808087F00417F41002040DB
:10016000413F017F081422417F404040407F020C04
:10017000027F7F0408107F3E4141413E7F0909090B
:10018000063E4151215E7F091929464649494931B8
:1001900001017F01013F4040403F1F2040201F3FA1
:1001A0004038403F63140814630708700807615122
:1001B000494543007F4141000204081020004141AD
:1001C0007F0004020102044040404040000102045C
:1001D0000020545454787F484444383844444420E0
:1001E000384444487F3854545418087E0901020C9E
:1001F0005252523E7F0804047800447D4000204063
:10020000443D007F1028440000417F40007C0418DA
:1002100004787C0804047838444444387C1414146A
:1002200008081414187C7C0804040848545454200A
:10023000043F4440203C4040207C1C2040201C3C8B
:100240004030403C44281028440C5050503C4464FA
:10025000544C44000836410000007F000000413645
:1002600008001008081008000000000011241FBE3C
:10027000CFEFD0E4DEBFCDBF11E0A0E0B1E0E0E61B
:10028000F7E100E00BBF02C007900D92AA3EB10754
:10029000D9F724E0AAEEB1E001C01D92AD36B20755
:1002A000E1F7CDD50C94AE0BABCE8A30910560F062
:1002B0008436910558F0883E23E0920748F080315B
:1002C000974240F085E0089581E0089582E0089526
:1002D00083E0089584E008950F931F93CF93DF93F5
:1002E000EC018B01E2DFE82FF0E0E00FF11F2AE0E4
:1002F00030E0E017F10749F03197CE01B9010E94D3
:10030000C209805D8083EB01F4CFDF91CF911F9113
:100310000F91089520E030E0281739074CF447E0AA
:1003200053E0000041505109E1F72F5F3F4FF4CFF8
:100330000895169888B9179A0000179882E090E0FF
:10034000E9CF81E0F6CF813110F4815801C08155A9
:10035000F0CF169A88B9179A0000179881E090E0BC
:10036000D9CFEF92FF921F93CF93DF9384E690E073
:10037000D1DF88E3DEDF86E0DCDF8EE0DADF81E0FC
:10038000D8DF8AE090E0C6DF80E4D3DF86E0E82EA5
:1003900081E0F82E10E4C0E0D0E08C2F810FC9DF9F
:1003A000D701ED91FC91EC0FFD1F8081D2DF81E040
:1003B00090E0B0DF2196C830D10579F7185FB2E040
:1003C000EB0EF11C103839F78AE090E0DF91CF9105
:1003D0001F91FF90EF909ECFAF92BF92CF92DF928E
:1003E000EF92FF920F931F93CF93DF93CDB7DEB7BA
:1003F0008C01CDB6DEB659DFB82E2DB73EB7281B1F
:1004000031090FB6F8943EBF0FBE2DBF8DB79EB712
:1004100001967C01BC01C8015FDFAE2C8701802FF3
:100420008A198B1528F4F80181918F0192DFF7CF9B
:100430000FB6F894DEBE0FBECDBEDF91CF911F91F7
:100440000F91FF90EF90DF90CF90BF90AF90089505
:100450008130910591F054F4892B51F5109254029A
:100460001092530280E090E041D71FC08230910586
:1004700049F083309105A9F01BC02091620421113D
:100480001AC004C020915E04211124C0209153029F
:10049000309154022F5F3F4F309354022093530208
:1004A000089520915E04211123C081E090E0089519
:1004B00080E090E0089580915302909154029093CF
:1004C000520280935102109254021092530282E021
:1004D00090E0DCCF20915302309154028091510280
:1004E00090915202820F931F01D783E090E0CECF0C
:1004F0000895CF93DF93EC01009719F0019771F005
:100500005FC010924D0210924E0210924F02109254
:10051000500210924C02C1E0D0E054C080915E04C1
:10052000882309F44FC080914C028F5F64E11ED78D
:1005300090934C0280916304882331F080915A0497
:1005400090915B04B2DE01C080E090E2981B892F9D
:10055000FADE80914C028B3010F482E001C080E220
:10056000F8DE809163048823D1F080915A04909141
:100570005B04A0915C04B0915D0440914D025091E8
:100580004E0260914F027091500284179507A607A2
:10059000B70721F40097A105B10509F41DDF80918B
:1005A0005A0490915B04A0915C04B0915D04809327
:1005B0004D0290934E02A0934F02B093500202C09E
:1005C000C0E0D0E0CE01DF91CF9108958FEE8BB9DE
:1005D0000000489B29C0499B29C04A9B29C04B9BCE
:1005E00029C08FED8BB90000489B26C0499B26C0CF
:1005F0004A9B26C04B9B26C08FEB8BB90000489BC3
:1006000023C0499B23C04A9B23C04B9B23C08FE739
:100610008BB90000489B20C0499B20C04A9B20C04A
:100620004B9B20C080E0089581E3089584E3089502
:1006300087E308958AE2089582E3089585E30895A3
:1006400088E3089580E3089583E3089586E3089599
:1006500089E3089583E2089581E4089582E408958A
:1006600083E4089584E40895CF93DF93EC0181300F
:10067000910541F08230910589F0892B99F410920F
:100680005F0413C0A3DF8823A1F0A0DF80935F0481
:1006900081E080936604C2E0D0E00BC097DF88233E
:1006A00021F007C0C0E0D0E004C010926604C1E0B1
:1006B000D0E0CE01DF91CF91089560933A0170931D
:1006C0003B0180933C0190933D01609355027093F0
:1006D0005602809357029093580208958BE08093BE
:1006E00081008DE790E0909389008093880082E0FC
:1006F00080936F00109285001092840080913A01DF
:1007000090913B01A0913C01B0913D018093550235
:1007100090935602A0935702B09358028FB7806807
:100720008FBF08951F920F920FB60F9211248F93CF
:100730009F93AF93BF938091550290915602A091E1
:100740005702B09158020197A109B109809355024F
:1007500090935602A0935702B0935802892B8A2B8C
:100760008B2B99F481E08093590280913A0190910A
:100770003B01A0913C01B0913D01809355029093C3
:100780005602A0935702B0935802BF91AF919F9128
:100790008F910F900FBE0F901F9018951F93CF93BE
:1007A000DF93182F86E090E0B8D6EC01812F90E01F
:1007B000B4D6998388831A821B821C821D83CE0142
:1007C000DF91CF911F910895FC0194818581981745
:1007D00080F48381A081B181A80FB11D6C938381C6
:1007E0008F5F6581C3D5938384818F5F848380E02D
:1007F000089581E0089581309105A1F0823091053E
:1008000041F1892B59F5E0915504F091560412827B
:1008100013821482E0915804F091590412821382D9
:1008200014821FC0209166042223E9F080915E04A7
:1008300060915F04811105C0809155049091560428
:1008400004C08091580490915904BEDF82E090E08A
:10085000089520916604211106C003C080E090E055
:10086000089581E090E00895FC018481882381F05F
:100870008281A081B181A80FB11D2C911C9282812F
:100880008F5F658173D59283848181508483822FA9
:10089000089580916504813039F018F0823039F084
:1008A000089561E085E405C061E08DE402C061E087
:1008B00088E484C4AF92BF92CF92DF92EF92FF920E
:1008C0000F931F93CF93DF93CDB7DEB78C01ADB6F7
:1008D000BEB6EBDCD82E8DB79EB78D1991090FB639
:1008E000F8949EBF0FBE8DBFEDB7FEB731967F0166
:1008F000BF01C801F1DCCE2C8701802F8C198D152A
:1009000030F461E0F80181918F0158D4F6CF0FB631
:10091000F894BEBE0FBEADBEDF91CF911F910F9177
:10092000FF90EF90DF90CF90BF90AF90089518D4D4
:1009300080915704813009F44EC050F1823009F0A3
:1009400067C060E080E0BBD461E085EC91E0A8D4B2
:1009500081E090E0AFDF61E08FEC91E0A1D481E035
:1009600090E0A8DF6AE080E0AAD461E081ED91E048
:1009700097D48091600490E09DDF64E180E09FD493
:1009800061E089ED91E08CD483E090E093DF40C09A
:1009900060E080E094D461E08CE591E081D46AE08D
:1009A00080E08DD461E086E691E07AD464E180E075
:1009B00086D461E082E791E073D46EE180E07FD479
:1009C00061E080E891E06CD468E280E078D461E096
:1009D0008EE891E01CC060E080E071D461E08AE9BB
:1009E00091E05ED46AE080E06AD461E083EA91E05D
:1009F00057D44FDF6EE180E062D461E080EB91E09C
:100A00004FD468E280E05BD461E08FEB91E048D4A2
:100A10005BC4CF93DF93EC0182309105A1F12CF4FC
:100A2000009759F00197A9F05FC08330910509F450
:100A300040C0049709F44FC057C01092620410924E
:100A40005E041092650481E0809361041092570463
:100A50000CC01092620410925E0480915504909133
:100A60005604FC012481211103C0C1E0D0E03EC046
:100A7000FBDE8134D1F781E08093620480935704D8
:100A8000C2E0D0E033C08091550490915604FC013F
:100A90002481222359F1E8DE833241F51092620469
:100AA00081E080935E0482E080935704C3E0D0E04D
:100AB0001DC08091550490915604FC01248122238D
:100AC000A9F0D2DE813491F410925E0410925704A2
:100AD000C4E0D0E00BC080915F04833239F4809190
:100AE0006604882319F0C1CFC0E0D0E020DFCE013A
:100AF000DF91CF9108952F923F924F925F926F9224
:100B00007F928F929F92AF92BF92CF92DF92EF929D
:100B1000FF920F931F93CF93DF93CDB7DEB7639709
:100B20000FB6F894DEBF0FBECDBFEAD3E3E0AE2E22
:100B3000B12CC12CD12CE12CF12C00E010E062D4BE
:100B4000C90120916504213029F0223031F433E3CA
:100B5000398B05C025E1298B02C0EAE0E98B8130A1
:100B6000910529F1029709F45EC0CAD3A988B12C76
:100B7000C12CD12CE12CF12C00E010E043D4190160
:100B8000BFD3A9883FD429833A8329813A81220D92
:100B9000331D3A87298781E0D6DBC1011DDC8BE25A
:100BA000D8DB89819A8118DC89859A8573C0A8D39E
:100BB000A988B12CC12CD12CE12CF12C00E010E043
:100BC00021D429833A834B835C836D837E838F8317
:100BD000988796D3A98816D429873A874B875C874C
:100BE0006D877E878F87988B8BD3A9880BD419014B
:100BF00089819A8129853A85820F931F820D931DE1
:100C00009B8B8A8B81E09FDB89819A81E5DB8BE27C
:100C1000A0DB89859A85E0DB8BE29BDBC101DCDB15
:100C20008A899B8937C06CD3E9892E2E312C412CBF
:100C3000512C612C712C4301AE2EB12CC12CD12C26
:100C4000E12CF12C00E010E0DDD301E03BD429835E
:100C5000211102C021E0298353D3510162017301A4
:100C60008401D0D301E02ED43981320F398781E05D
:100C70006ADB9985892F90E09A878987ADDB8DE2C1
:100C800068DBE9818E2E912CC401A6DB89859A85CB
:100C90008819990963960FB6F894DEBF0FBECDBFD1
:100CA000DF91CF911F910F91FF90EF90DF90CF9048
:100CB000BF90AF909F908F907F906F905F904F907C
:100CC0003F902F9008958153893030F4E82FF0E061
:100CD000EF51FE4F8081089580E00895CF92DF921A
:100CE000EF92FF921F93CF93DF93EC018130910538
:100CF000D9F0A4F4892B09F082C0109260041092FC
:100D0000540410925A0410925B0410925C041092E6
:100D10005D0410926304C1E0D0E088C08230910588
:100D200041F00397A1F06BC080915E0481116AC00D
:100D30007DC0E1DE1092630410925A0410925B04AD
:100D400010925C0410925D04C3E0D0E06FC080910B
:100D50005E04811102C0C1E0D0E0809158049091FE
:100D60005904FC012481222309F444C07DDD8A3228
:100D700091F410925A0410925B0410925C04109249
:100D80005D04109263048CE1DEDA16E080E2E1DAC1
:100D90001150E1F72FC090ED980F9A3058F5C090A0
:100DA0005A04D0905B04E0905C04F0905D04F8EE8F
:100DB000CF16F3E0DF06E104F104A8F484DFE82FA6
:100DC000AAE0B0E0A701960113D3DC01CB018E0F9E
:100DD000911DA11DB11D80935A0490935B04A093B3
:100DE0005C04B0935D0480916304811103C081E0D1
:100DF00080936304C130D105C9F4A3DA17C0C0E001
:100E0000D0E014C01092600480916504813031F408
:100E100088E080935404C2E0D0E008C0813010F430
:100E200086E0F7CF8230E1F78AE0F3CFCE01DF91A1
:100E3000CF911F91FF90EF90DF90CF900895CF93C7
:100E4000DF93CDB7DEB762970FB6F894DEBF0FBE63
:100E5000CDBF8EEF81B981E082B98FE784B980E898
:100E600085B98FEF87B918B880EF8AB98FE08BB951
:100E700081E094DC909356048093550481E08EDCED
:100E800090935904809358048CE0EAE4F1E0DE0189
:100E9000119601900D928A95E1F786E0E6E5F1E082
:100EA000DE011D9601900D928A95E1F710924102A4
:100EB000609136017091370180913801909139012C
:100EC00060934202709343028093440290934502E0
:100ED00060934602709347028093480290934902C0
:100EE00024E333E030934B0220934A0210923602FF
:100EF00060933702709338028093390290933A02DC
:100F000060933B0270933C0280933D0290933E02BB
:100F10002BEF33E03093400220933F0210922B02DC
:100F200060932C0270932D0280932E0290932F02D7
:100F300060933002709331028093320290933302B7
:100F400028E232E0309335022093340210922002DE
:100F500060932102709322028093230290932402D3
:100F600060932502709326028093270290932802B3
:100F700029E035E030932A022093290210921502CD
:100F800060931602709317028093180290931902CF
:100F900060931A0270931B0280931C0290931D02AF
:100FA0002EE636E030931F0220931E0210920A02B2
:100FB00060930B0270930C0280930D0290930E02CB
:100FC00060930F02709310028093110290931202AB
:100FD00029E732E030931402209313026EDB7EDBAC
:100FE000C0D9AFD981E0AFD986D0BAD0CE010D96A5
:100FF0005C014E0193E1890E911C1F990FC0FE0107
:101000003196A191B19115961D921D921D921C923F
:1010100018971C92EA15FB05A1F793D97501DE011B
:1010200011966D01F70181917F018823C1F1D601ED
:101030000D911C91F80145815681678170858181F0
:101040009281A381B481481759076A077B0779F415
:1010500080810184F285E02D082E000C990B099502
:10106000D8018C93F8011582168217821086D80158
:1010700015964D915D916D917C91189780913601F7
:1010800090913701A0913801B0913901840F951FDB
:10109000A61FB71FF80185839683A783B087F2E068
:1010A000CF0ED11CE814F90409F0BCCF809159028D
:1010B0008823E1F310925902A0CF2C98662311F0F7
:1010C0002A9A01C02A9827E030E090E0AC01022E75
:1010D00002C0559547950A94E2F740FF02C0299A4D
:1010E00001C02998289A28982150310978F72C9A1C
:1010F000089560E0E2CFCF93DF93249A239A229A57
:10110000219A209A2B9A2C9A83EC99E00197F1F777
:1011100000C000002B988BE594E40197F1F700C024
:1011200000002B9A2C9881E2E4DF83E1E2DF86E085
:10113000E0DF82ECDEDF80E2DCDF89E0DADF80E81E
:10114000D8DF80E4D6DFC8EFD1E061E080E0B5DF32
:101150002197D9F788E0CDDF8CE0DF91CF91C9CF1F
:1011600080E8C7DF80E4C5DF109252041092530478
:10117000EAE5F2E0119284E0E235F807D9F7089544
:10118000962F969596959695E82FF0E084E5989F92
:10119000E00DF11D1124E65AFD4F677081E090E0EB
:1011A00001C0880F6A95EAF7442319F09081892BD2
:1011B00003C080959081892380830895BF92CF9248
:1011C000DF92EF92FF920F931F93CF93DF93D62E70
:1011D00095E0699FE001112497E0699F8001112447
:1011E000B12C90E0809725E0289F7001299FF00C9A
:1011F00011248B2D90E08C179D073CF5C12C8C2D74
:1012000090E080179107FCF48B2D6D2DAFD0F70186
:10121000E80FF11DE457FF4FE491F0E08C2DA6D0CC
:1012200002C0F595E7958A95E2F7609153048091A5
:1012300052046C0DE0FF02C041E001C040E08B0DA4
:101240009FDFC394DCCFB394D4CF8091520491E05C
:10125000980F8D2D880F880F8D0D890F843518F408
:10126000809352040BC010925204809153048F5FFC
:1012700097E0D99E800D11248093530480915304EC
:10128000803320F01092520410925304DF91CF91DA
:101290001F910F91FF90EF90DF90CF90BF90089536
:1012A0001F93CF93DF93162FEC018991882319F0B8
:1012B000612F84DFFACFDF91CF911F910895809342
:1012C0005204609353040895CF93DF9380E811DFB5
:1012D00080E40FDFCAE5D2E061E08991EEDE84E0D0
:1012E000C235D807C9F7DF91CF91089523E082274F
:1012F00064EF71E047D09093680480936704089589
:101300000F931F93CF93DF93A0916704B09168046C
:101310002091460130914701409148015091490187
:1013200067D0009142011091430120914401309116
:101330004501600F711F821F931F20913E01309164
:101340003F01409140015091410130D070936804B9
:10135000609367049B0140E050E060E070E080E053
:1013600090E0DF91CF911F910F910895991B79E043
:1013700004C0991F961708F0961B881F7A95C9F725
:1013800080950895AA1BBB1B51E107C0AA1FBB1F74
:10139000A617B70710F0A61BB70B881F991F5A9501
:1013A000A9F780959095BC01CD010895A1E21A2E70
:1013B000AA1BBB1BFD010DC0AA1FBB1FEE1FFF1FF9
:1013C000A217B307E407F50720F0A21BB30BE40B49
:1013D000F50B661F771F881F991F1A9469F7609590
:1013E0007095809590959B01AC01BD01CF0108954A
:1013F00085D0A59F900DB49F900DA49F800D911D49
:1014000011240895689401C0E8948F929F92CF931D
:10141000DF9305D0DF91CF919F908F90089588241E
:101420009924F401E401B0E49F93AA279A158B0450
:101430009C04ED05FE05CF05D007A10798F4AD2F5C
:10144000DC2FCF2FFE2FE92D982C892E982F872F58
:10145000762F652F542F432F322F2227B85031F784
:10146000BF9127C01B2EBF91BB27220F331F441FE4
:10147000551F661F771F881F991F881C991CEE1F18
:10148000FF1FCC1FDD1FAA1FBB1F8A149B04EC0586
:10149000FD05CE05DF05A007B10748F08A189B08B7
:1014A000EC09FD09CE09DF09A00BB10B21601A94EC
:1014B000E1F62EF49401AF01BE01CD01000C0895B8
:1014C00097FB10F8169400080F93083098F0085016
:1014D000232F342F452F562F672F782F892F902DAC
:1014E000F4CF059497958795779567955795479588
:1014F000379527950A95AAF70F910895A29FB001F5
:10150000B39FC001A39F700D811D1124911DB29F37
:10151000700D811D1124911D08950F931F93CF937A
:10152000DF938230910510F482E090E0E0916B044B
:10153000F0916C0420E030E0A0E0B0E0309719F1C9
:10154000408151810281138148175907C8F08417DF
:10155000950769F4109731F012960C931297139631
:101560001C9327C000936B0410936C0422C02115B8
:10157000310519F04217530718F49A01BD01EF0124
:10158000DF01F801DBCF21153105F9F0281B390BFC
:101590002430310580F48A819B816115710521F029
:1015A000FB019383828304C090936C0480936B044B
:1015B000FE01329644C0FE01E20FF31F8193919326
:1015C00022503109398328833AC02091690430912F
:1015D0006A04232B41F420910201309103013093DE
:1015E0006A042093690420910001309101012115C2
:1015F000310541F42DB73EB74091040150910501EA
:10160000241B350BE0916904F0916A04E217F3079B
:10161000A0F42E1B3F0B2817390778F0AC014E5F62
:101620005F4F2417350748F04E0F5F1F50936A0431
:10163000409369048193919302C0E0E0F0E0CF0110
:10164000DF91CF911F910F910895CF93DF93009772
:1016500009F481C0FC01329713821282A0916B04BD
:10166000B0916C04109781F420813181820F931F17
:101670002091690430916A042817390751F5F093D5
:101680006A04E093690467C0ED0120E030E0CE1702
:10169000DF0740F44A815B819E0141155105F1F05D
:1016A000EA01F5CFD383C28340815181840F951F16
:1016B000C817D90759F488819981840F951F02961C
:1016C000918380838A819B81938382832115310555
:1016D00029F4F0936C04E0936B043DC0E901FB83B3
:1016E000EA8349915991C40FD51FEC17FD0761F4A6
:1016F00080819181840F951F0296E90199838883E7
:10170000828193819B838A83E0E0F0E012968D9141
:101710009C911397009719F0FD01DC01F7CF8D9193
:101720009C9111979D012E5F3F4F820F931F209137
:10173000690430916A042817390769F4309729F44D
:1017400010926C0410926B0402C013821282B09348
:101750006A04A0936904DF91CF910895F894FFCFB4
:1017600000006D0420002E0126011E011601020258
:10177000FA01F201EA01001F0E0E04040E1F000C14
:101780000E0F0F0E0C0003040404040414081F0EB3
:1017900004040E1F0E040A00000001000000175987
:1017A000C50E3EEEC632539C372B410236022B0249
:1017B000200215020A020101010101014D41494EB9
:1017C000204D454E5500413A204E65772067616DAA
:1017D0006500423A20446966666963756C747900F5
:1017E000433A204869676873636F72657300443ACF
:1017F0002053657474696E6773004E4557204741E6
:101800004D4500446966666963756C74793A2000D9
:1018100050726573732023206B657920746F0062AA
:101820006567696E005175657374696F6E20002F6E
:101830000053636F72653A20004C697665733A20F5
:0A1840000001020304050607080971
:00000001FF
