:1000000035C1000051C100004FC100004DC10000CA
:100010004BC1000049C1000047C1000045C10000BC
:1000200043C1000041C100003FC100003DC10000CC
:100030003BC1000001C3000037C1000035C1000012
:1000400033C1000031C100002FC100002DC10000EC
:100050002BC1000029C1000027C1000025C10000FC
:1000600023C1000021C100001FC100001DC100000C
:100070001BC1000019C1000017C1000015C100001C
:1000800013C1000011C100000FC1000000000000FA
:100090000000005F00000007000700147F147F14B9
:1000A000242A7F2A122313086462364955225000FD
:1000B00005030000001C2241000041221C0014081E
:1000C0003E081408083E08080050300000080808E0
:1000D0000808006060000020100804023E514945F5
:1000E0003E00427F400042615149462141454B312B
:1000F0001814127F1027454545393C4A49493001BB
:10010000710905033649494936064949291E003611
:100110003600000056360000081422410014141462
:100120001414004122140802015109063249794190
:100130003E7E1111117E7F494949363E414141229F
:100140007F4141221C7F494949417F090909013EFC
:100150004149497A7F0808087F00417F41002040DB
:10016000413F017F081422417F404040407F020C04
:10017000027F7F0408107F3E4141413E7F0909090B
:10018000063E4151215E7F091929464649494931B8
:1001900001017F01013F4040403F1F2040201F3FA1
:1001A0004038403F63140814630708700807615122
:1001B000494543007F4141000204081020004141AD
:1001C0007F0004020102044040404040000102045C
:1001D0000020545454787F484444383844444420E0
:1001E000384444487F3854545418087E0901020C9E
:1001F0005252523E7F0804047800447D4000204063
:10020000443D007F1028440000417F40007C0418DA
:1002100004787C0804047838444444387C1414146A
:1002200008081414187C7C0804040848545454200A
:10023000043F4440203C4040207C1C2040201C3C8B
:100240004030403C44281028440C5050503C4464FA
:10025000544C44000836410000007F000000413645
:1002600008001008081008000000000011241FBE3C
:10027000CFEFD0E4DEBFCDBF11E0A0E0B1E0EEE310
:10028000F4E100E00BBF02C007900D92A23CB10761
:10029000D9F724E0A2ECB1E001C01D92A133B2076E
:1002A000E1F769D40C941D0AABCE8A30910560F059
:1002B0008436910558F0883E23E0920748F080315B
:1002C000974240F085E0089581E0089582E0089526
:1002D00083E0089584E008950F931F93CF93DF93F5
:1002E000EC018B01E2DFE82FF0E0E00FF11F2AE0E4
:1002F00030E0E017F10741F03197CE01B901B1D6F6
:10030000805D8083EB01F5CFDF91CF911F910F913D
:10031000089520E030E0281739074CF447E053E017
:10032000000041505109E1F72F5F3F4FF4CF08958E
:100330005E9888B95F9A00005F9882E090E0E9CF0C
:1003400081E0F6CF813110F4815801C08155F0CFA2
:100350005E9A88B95F9A00005F9881E090E0D9CFFB
:10036000CF93DF9384E690E0D4DF88E3E1DF86E09B
:10037000DFDF8FE0DDDF81E0DBDF8AE090E0C9DFF7
:1003800080E4D6DFC0E0D0E0E0910601F091070103
:10039000EC0FFD1F8081DCDF2196C830D105A1F76D
:1003A000C0E0D0E0E0910801F0910901EC0FFD1FE1
:1003B0008081CEDF2196C830D105A1F78AE090E098
:1003C000DF91CF91A6CFAF92BF92CF92DF92EF9203
:1003D000FF920F931F93CF93DF93CDB7DEB78C01BE
:1003E000CDB6DEB662DFB82E2DB73EB7281B310979
:1003F0000FB6F8943EBF0FBE2DBF8DB79EB70196C6
:100400007C01BC01C80168DFAE2C8701802F8A19EE
:100410008B1528F4F80181918F019ADFF7CF0FB681
:10042000F894DEBE0FBECDBEDF91CF911F910F912C
:10043000FF90EF90DF90CF90BF90AF900895813004
:10044000910591F054F4892B51F510921E021092EF
:100450001D0280E090E0B9D51FC08230910549F0BF
:1004600083309105A9F01BC02091280421111AC0E6
:1004700004C020912404211124C020911D02309138
:100480001E022F5F3F4F30931E0220931D020895DE
:1004900020912404211123C081E090E0089580E0A0
:1004A00090E0089580911D0290911E0290931C028D
:1004B00080931B0210921E0210921D0282E090E0B7
:1004C000DCCF20911D0230911E0280911B02909181
:1004D0001C02820F931F79D583E090E0CECF089560
:1004E0008FEE82B90000009B29C0019B29C0029BAE
:1004F00029C0039B29C08FED82B90000009B26C054
:10050000019B26C0029B26C0039B26C08FEB82B9AD
:100510000000009B23C0019B23C0029B23C0039BC0
:1005200023C08FE782B90000009B20C0019B20C040
:10053000029B20C0039B20C080E0089581E30895C2
:1005400084E3089587E308958AE2089582E3089595
:1005500085E3089588E3089580E3089583E308958B
:1005600086E3089589E3089583E2089581E4089578
:1005700082E4089583E4089584E40895CF93DF939B
:10058000EC018130910541F08230910589F0892B91
:1005900099F41092250413C0A3DF8823A1F0A0DFF3
:1005A0008093250481E080932A04C2E0D0E00BC050
:1005B00097DF882321F007C0C0E0D0E004C010928C
:1005C0002A04C1E0D0E0CE01DF91CF91089560937D
:1005D0003A0170933B0180933C0190933D016093FD
:1005E0001F027093200280932102909322020895AB
:1005F0008BE0809381008DE790E090938900809359
:10060000880082E080936F00109285001092840031
:1006100080913A0190913B01A0913C01B0913D0144
:1006200080931F0290932002A0932102B093220294
:100630008FB780688FBF08951F920F920FB60F92E9
:1006400011248F939F93AF93BF9380911F0290913A
:100650002002A0912102B09122020197A109B109C3
:1006600080931F0290932002A0932102B093220254
:10067000892B8A2B8B2B99F481E080932302809124
:100680003A0190913B01A0913C01B0913D018093D2
:100690001F0290932002A0932102B0932202BF91E7
:1006A000AF919F918F910F900FBE0F901F90189553
:1006B0001F93CF93DF93182F86E090E09DD5EC0138
:1006C000812F90E099D5998388831A821B821C829E
:1006D0001D83CE01DF91CF911F910895FC0194817C
:1006E0008581981780F48381A081B181A80FB11D05
:1006F0006C9383818F5F6581A8D4938384818F5F9E
:10070000848380E0089581E0089581309105A1F00F
:100710008230910541F1892B59F5E0911F04F09148
:100720002004128213821482E0912204F0912304A7
:100730001282138214821FC020912A042223E9F01E
:100740008091240460912504811105C080911F04CB
:100750009091200404C08091220490912304BEDF74
:1007600082E090E0089520912A04211106C003C080
:1007700080E090E0089581E090E00895FC0184819C
:10078000882381F08281A081B181A80FB11D2C91B5
:100790001C9282818F5F658158D4928384818150BD
:1007A0008483822F089580912904813039F018F0D4
:1007B000823039F0089561E085E405C061E08DE4A0
:1007C00002C061E088E469C33AD3809121048823A0
:1007D00001F1813009F040C060E080E0DFD361E0EA
:1007E00087E991E0CCD36AE080E0D8D361E080EA89
:1007F00091E0C5D3D8DF6EE180E0D0D361E08DEA2F
:1008000091E0BDD368E280E0C9D361E08CEB91E078
:1008100022C060E080E0C2D361E089E591E0AFD31F
:100820006AE080E0BBD361E083E691E0A8D364E1B5
:1008300080E0B4D361E08FE691E0A1D36EE180E087
:10084000ADD361E08DE791E09AD368E280E0A6D372
:1008500061E08BE891E093D3A6C3CF93DF93EC01E3
:100860008230910599F12CF4009751F00197A1F095
:1008700053C083309105D1F1049709F444C04CC0B2
:1008800010922804109224041092290481E080938D
:100890002704109221040CC0109228041092240402
:1008A00080911F0490912004FC012481211103C038
:1008B000C1E0D0E033C062DF8134D1F781E08093C2
:1008C000280480932104C2E0D0E028C08091250450
:1008D000833221F580912A04882301F110922804A3
:1008E00081E080932404C3E0D0E018C08091250407
:1008F0008A32A1F480912A04882381F01092240482
:10090000C4E0D0E00BC080912504833239F480919B
:100910002A04882319F0CCCFC0E0D0E055DFCE0107
:10092000DF91CF9108952F923F924F925F926F92F5
:100930007F928F929F92AF92BF92CF92DF92EF926F
:10094000FF920F931F93CF93DF93CDB7DEB76197DD
:100950000FB6F894DEBF0FBECDBF41D3E3E0AE2E9D
:10096000B12CC12CD12CE12CF12C00E010E0B9D33A
:10097000C90120912904213029F0223031F433E3D8
:10098000398B05C025E1298B02C0EAE0E98B813073
:10099000910529F1029709F45AC021D3A988B12CF5
:1009A000C12CD12CE12CF12C00E010E09AD329834A
:1009B0003A834B835C836D837E838F8398870FD3C9
:1009C000A9888FD3290181E0BDDC89819A81FBDC74
:1009D0008BE2BEDCC201F7DC89819A8135C0FFD28F
:1009E000A988B12CC12CD12CE12CF12C00E010E015
:1009F00078D329833A834B835C836D837E838F8393
:100A00009887EDD2A9886DD329873A874B875C8771
:100A10006D877E878F87988BE2D2A98862D3290160
:100A200081E090DC89819A81CEDC8BE291DC898542
:100A30009A85C9DC8BE28CDCC201C5DC89819A8194
:100A400029853A85820F931F840D951D35C0C7D225
:100A5000E9892E2E312C412C512C612C712C430113
:100A6000AE2EB12CC12CD12CE12CF12C00E010E0E9
:100A700038D301E096D32983211102C021E02983D4
:100A8000AED251016201730184012BD301E089D3FD
:100A90004980420E81E056DC512CC20194DC8DE28B
:100AA00057DC9981892F90E09A8389838CDCC2017D
:100AB00029813A81821B930B61960FB6F894DEBFB1
:100AC0000FBECDBFDF91CF911F910F91FF90EF909F
:100AD000DF90CF90BF90AF909F908F907F906F905E
:100AE0005F904F903F902F9008958130910579F05D
:100AF0003CF4892B29F51092260410921E0438C06C
:100B00008230910549F083309105A9F019C02091F8
:100B10002404211118C0089506DF90931A028093CF
:100B2000190281E10FDC8091190290911A024BDCCD
:100B300083E090E00895209124042223C1F00895D9
:100B400080E090E00895109226048091290481307D
:100B500031F488E080931E0482E090E008958130B3
:100B600010F486E0F7CF8230E1F78AE0F3CFE8DBDC
:100B700081E090E00895CF93DF93CDB7DEB72F9754
:100B80000FB6F894DEBF0FBECDBF80EF81B98FE006
:100B900082B98FEF84B915B887B918B88AB91BB86C
:100BA00081E086DD9093200480931F0481E080DD46
:100BB00090932304809322048AE0EAE4F1E0DE01CA
:100BC000119601900D928A95E1F785E0E4E5F1E058
:100BD000DE011B9601900D928A95E1F710920E02AC
:100BE00060913601709137018091380190913901FF
:100BF00060930F027093100280931102909312027F
:100C0000609313027093140280931502909316025E
:100C10002EEB32E030931802209317021092030259
:100C2000609304027093050280930602909307027A
:100C3000609308027093090280930A0290930B025A
:100C400025E833E030930D0220930C021092F80156
:100C50006093F9017093FA018093FB019093FC017A
:100C60006093FD017093FE018093FF019093000259
:100C70002FE132E030930202209301021092ED0145
:100C80006093EE017093EF018093F0019093F10176
:100C90006093F2017093F3018093F4019093F50156
:100CA0002DE234E03093F7012093F6011092E20137
:100CB0006093E3017093E4018093E5019093E60172
:100CC0006093E7017093E8018093E9019093EA0152
:100CD00025E735E03093EC012093EB0178DC88DCEC
:100CE0003FDB2EDB81E02EDB75D0A9D05E0180E1F9
:100CF000A80EB11C7E019BE0E90EF11CDE011196ED
:100D00006D01F70181917F018823C1F1D6010D9119
:100D10001C91F8014581568167817085818192819E
:100D2000A381B481481759076A077B0779F480814A
:100D30000184F285E02D082E000C990B0995D8014D
:100D40008C93F8011582168217821086D8011596A9
:100D50004D915D916D917C911897809136019091A4
:100D60003701A0913801B0913901840F951FA61F5A
:100D7000B71FF80185839683A783B087F2E0CF0E73
:100D8000D11CEA14FB0409F0BCCF80912302882314
:100D9000E1F310922302AECF2C98662311F02A9A29
:100DA00001C02A9827E030E090E0AC01022E02C09A
:100DB000559547950A94E2F740FF02C0299A01C071
:100DC0002998289A28982150310978F72C9A089563
:100DD00060E0E2CFCF93DF93249A239A229A219A5C
:100DE000209A2B9A2C9A83EC99E00197F1F700C096
:100DF00000002B988BE594E40197F1F700C0000008
:100E00002B9A2C9881E2E4DF83E1E2DF86E0E0DFE9
:100E100082ECDEDF80E2DCDF89E0DADF80E8D8DF49
:100E200080E4D6DFC8EFD1E061E080E0B5DF219754
:100E3000D9F788E0CDDF8CE0DF91CF91C9CF80E892
:100E4000C7DF80E4C5DF10921C0410921D04E4E2A9
:100E5000F2E0119284E0EC31F807D9F70895962F6B
:100E6000969596959695E82FF0E084E5989FE00D8D
:100E7000F11D1124EC5DFD4F677081E090E001C031
:100E8000880F6A95EAF7442319F09081892B03C0F3
:100E900080959081892380830895BF92CF92DF92BD
:100EA000EF92FF920F931F93CF93DF93D62E95E08F
:100EB000699FE001112497E0699F80011124B12C02
:100EC00090E0809725E0289F7001299FF00C112465
:100ED0008B2D90E08C179D073CF5C12C8C2D90E05C
:100EE00080179107FCF48B2D6D2DAFD0F701E80F23
:100EF000F11DE457FF4FE491F0E08C2DA6D002C025
:100F0000F595E7958A95E2F760911D0480911C04A0
:100F10006C0DE0FF02C041E001C040E08B0D9FDF9F
:100F2000C394DCCFB394D4CF80911C0491E0980F8C
:100F30008D2D880F880F8D0D890F843518F48093BF
:100F40001C040BC010921C0480911D048F5F97E05D
:100F5000D99E800D112480931D0480911D0480333F
:100F600020F010921C0410921D04DF91CF911F916C
:100F70000F91FF90EF90DF90CF90BF9008951F9357
:100F8000CF93DF93162FEC018991882319F0612FFD
:100F900084DFFACFDF91CF911F91089580931C04D5
:100FA00060931D040895CF93DF9380E811DF80E400
:100FB0000FDFC4E2D2E061E08991EEDE84E0CC3163
:100FC000D807C9F7DF91CF91089523E0822764EF16
:100FD00071E047D090932C0480932B0408950F93D5
:100FE0001F93CF93DF93A0912B04B0912C042091F9
:100FF000460130914701409148015091490167D025
:10100000009142011091430120914401309145012A
:10101000600F711F821F931F20913E0130913F018D
:10102000409140015091410130D070932C04609365
:101030002B049B0140E050E060E070E080E090E035
:10104000DF91CF911F910F910895991B79E004C012
:10105000991F961708F0961B881F7A95C9F78095F7
:101060000895AA1BBB1B51E107C0AA1FBB1FA617EF
:10107000B70710F0A61BB70B881F991F5A95A9F741
:1010800080959095BC01CD010895A1E21A2EAA1B6E
:10109000BB1BFD010DC0AA1FBB1FEE1FFF1FA21728
:1010A000B307E407F50720F0A21BB30BE40BF50B25
:1010B000661F771F881F991F1A9469F760957095AE
:1010C000809590959B01AC01BD01CF01089585D01D
:1010D000A59F900DB49F900DA49F800D911D11248C
:1010E0000895689401C0E8948F929F92CF93DF9304
:1010F00005D0DF91CF919F908F90089588249924F7
:10110000F401E401B0E49F93AA279A158B049C0490
:10111000ED05FE05CF05D007A10798F4AD2FDC2F14
:10112000CF2FFE2FE92D982C892E982F872F762FE1
:10113000652F542F432F322F2227B85031F7BF91FC
:1011400027C01B2EBF91BB27220F331F441F551FE3
:10115000661F771F881F991F881C991CEE1FFF1F91
:10116000CC1FDD1FAA1FBB1F8A149B04EC05FD05C5
:10117000CE05DF05A007B10748F08A189B08EC09E7
:10118000FD09CE09DF09A00BB10B21601A94E1F62D
:101190002EF49401AF01BE01CD01000C089597FB20
:1011A00010F8169400080F93083098F00850232F79
:1011B000342F452F562F672F782F892F902DF4CF5E
:1011C00005949795879577956795579547953795A2
:1011D00027950A95AAF70F910895A29FB001B39F92
:1011E000C001A39F700D811D1124911DB29F700D30
:1011F000811D1124911D08950F931F93CF93DF93A9
:101200008230910510F482E090E0E0912F04F0919B
:10121000300420E030E0A0E0B0E0309719F14081E8
:1012200051810281138148175907C8F08417950727
:1012300069F4109731F012960C93129713961C9341
:1012400027C000932F041093300422C021153105CC
:1012500019F04217530718F49A01BD01EF01DF019D
:10126000F801DBCF21153105F9F0281B390B2430AB
:10127000310580F48A819B816115710521F0FB01A4
:101280009383828304C09093300480932F04FE01E3
:10129000329644C0FE01E20FF31F819391932250D6
:1012A0003109398328833AC020912D0430912E04CE
:1012B000232B41F4209102013091030130932E043D
:1012C00020932D0420910001309101012115310559
:1012D00041F42DB73EB74091040150910501241B04
:1012E000350BE0912D04F0912E04E217F307A0F4E2
:1012F0002E1B3F0B2817390778F0AC014E5F5F4F6C
:101300002417350748F04E0F5F1F50932E0440936B
:101310002D048193919302C0E0E0F0E0CF01DF91D2
:10132000CF911F910F910895CF93DF93009709F408
:1013300081C0FC01329713821282A0912F04B091D8
:101340003004109781F420813181820F931F209106
:101350002D0430912E042817390751F5F0932E04EF
:10136000E0932D0467C0ED0120E030E0CE17DF07E9
:1013700040F44A815B819E0141155105F1F0EA017B
:10138000F5CFD383C28340815181840F951FC81745
:10139000D90759F488819981840F951F029691830A
:1013A00080838A819B81938382832115310529F46F
:1013B000F0933004E0932F043DC0E901FB83EA83FE
:1013C00049915991C40FD51FEC17FD0761F4808135
:1013D0009181840F951F0296E90199838883828108
:1013E00093819B838A83E0E0F0E012968D919C913B
:1013F0001397009719F0FD01DC01F7CF8D919C91B7
:1014000011979D012E5F3F4F820F931F20912D0456
:1014100030912E042817390769F4309729F4109277
:10142000300410922F0402C013821282B0932E0453
:0E143000A0932D04DF91CF910895F894FFCF83
:10143E000000310420002E0126011E011601DA01E2
:10144E00D201CA01C201001F0E0E04040E1F000CB1
:10145E000E0F0F0E0C0003040404040414081F0ED8
:10146E0004040E1F0E040A000000010000001759AC
:10147E00C50E3EEEC632539C372B0E020302F80108
:10148E00ED01E20101010101014D41494E204D45A1
:10149E004E5500413A204E65772067616D650042DA
:1014AE003A20446966666963756C747900433A2024
:1014BE004869676873636F72657300443A205365B9
:1014CE007474696E6773004E45572047414D450051
:1014DE00446966666963756C74793A20005072656A
:1014EE0073732023206B657920746F0062656769C2
:0214FE006E007E
:00000001FF
